:020000040800F2
:1000000068130020D101000823110008091100081D
:100010000D110008EF02000819150008000000008B
:100020000000000000000000000000009512000821
:10003000F302000800000000251100083D1300082D
:10004000EB010008EB010008EB010008EB010008E0
:10005000EB010008EB010008EB010008EB010008D0
:10006000EB010008EB010008EB010008EB010008C0
:10007000EB010008EB010008EB010008EB010008B0
:10008000EB010008EB010008EB010008EB010008A0
:10009000EB010008EB010008EB0100082103000858
:1000A000EB010008EB010008EB010008EB01000880
:1000B000EB010008EB010008EB010008EB01000870
:1000C000EB010008EB010008EB010008EB01000860
:1000D000EB010008651400089D140008D514000801
:1000E000F5020008EB010008EB010008EB01000835
:1000F000EB010008EB010008EB010008EB01000830
:10010000EB010008EB010008EB010008EB0100081F
:10011000EB010008EB010008EB010008EB0100080F
:10012000EB010008EB010008EB010008EB010008FF
:1001300000F002F800F03CF80AA090E8000C8244BD
:100140008344AAF10107DA4501D100F031F8AFF29A
:10015000090EBAE80F0013F0010F18BFFB1A43F0A5
:1001600001031847E82B0000082C0000103A24BFB8
:1001700078C878C1FAD8520724BF30C830C144BF0C
:1001800004680C607047000000230024002500264E
:10019000103A28BF78C1FBD8520728BF30C148BFEA
:1001A0000B6070471FB502F0CCFD1FBD10B510BD30
:1001B00000F063F81146FFF7F5FF01F0A1FE00F033
:1001C00081F803B4FFF7F2FF03BC00F089F80000E8
:1001D0000948804709480047FEE7FEE7FEE7FEE7DB
:1001E000FEE7FEE7FEE7FEE7FEE7FEE70448054917
:1001F000054A064B704700006513000831010008EE
:10020000680B002068130020680F0020680F002092
:1002100010B5203AC0F00B80B1E81850203AA0E8A1
:100220001850B1E81850A0E81850BFF4F5AF5FEAD5
:10023000027C24BFB1E81850A0E8185044BF18C988
:1002400018C0BDE810405FEA827C24BF51F8043B2F
:1002500040F8043B08BF7047D20728BF31F8023B83
:1002600048BF11F8012B28BF20F8023B48BF00F817
:10027000012B7047704770477047754600F02CF8A7
:10028000AE4605006946534620F00700854618B083
:1002900020B5FFF7ABFFBDE820404FF000064FF060
:1002A00000074FF000084FF0000B21F00701AC46AB
:1002B000ACE8C009ACE8C009ACE8C009ACE8C009CA
:1002C0008D46704710B50446AFF300802046BDE868
:1002D0001040FFF776BF000000487047080B002071
:1002E00001491820ABBEFEE726000200704700BFA0
:1002F000FEE7704710B54FF4006001F013FC28B121
:100300000648006810B10548006880470022114681
:100310004FF4006001F0AAFB10BD00003400002083
:1003200010B5202001F0FEFB28B10648006810B18E
:1003300004480068804700221146202001F096FB07
:1003400010BD0000300000202DE9F04106460C46AB
:1003500001F0D6FC4FF00008A6F10060C0F5802047
:10036000A04204D201F044FC0020BDE8F081E70A7D
:10037000C4F30A0000B17F1C002507E04FF40061C0
:1003800001FB056001F04AFC80466D1CBD4202DAAB
:10039000B8F1000FF2D001F02BFC0120E5E70000DE
:1003A0002DE9F04105460E461746B5F1006F02D320
:1003B0001048854202D30020BDE8F08101F0A0FC86
:1003C000002411E00CE028593159884207D03159F6
:1003D000281901F0B7FC642001F02CFB00E000E0DC
:1003E000F1E700BF201D84B2BC42EBDB01F000FC52
:1003F0000120E1E70000040810B50548007820B1AD
:100400002021044801F073FD10BDFF20FCE700002F
:10041000880900200010014010B50548007820B17F
:100420002021044801F0FCFC00E000BF10BD0000EA
:10043000880900200010014010B50548007820B15F
:100440002021044801F0EAFC00E000BF10BD0000DC
:10045000880900200010014010B5044609480078C2
:1004600070B134B1202303221021074801F0E1FCD0
:1004700007E0202303220421034801F0DAFC00E016
:1004800000BF10BD880900200010014000B50548DC
:10049000007820B12021044801F0C4FC00E000BF36
:1004A00000BD0000880900200010014010B505487B
:1004B00090F8F00020B10821034801F018FD10BDAC
:1004C000FF20FCE788090020000C014010B505481A
:1004D00090F8F00020B10821034801F0A1FC00E0F1
:1004E00000BF10BD88090020000C014010B5054870
:1004F00090F8F00020B10821034801F08FFC00E0E3
:1005000000BF10BD88090020000C014010B5044652
:100510000A4890F8F00070B134B10823032210218A
:10052000074801F086FC07E0082303220421044861
:1005300001F07FFC00E000BF10BD00008809002032
:10054000000C014000B5054890F8F00020B10821EA
:10055000034801F067FC00E000BF00BD88090020EF
:10056000000C014010B5054890F8080120B1402169
:10057000034801F0BCFC10BDFF20FCE78809002007
:10058000000C014010B5054890F8080120B1402149
:10059000034801F045FC00E000BF10BD88090020C1
:1005A000000C014010B5054890F8080120B1402129
:1005B000034801F033FC00E000BF10BD88090020B3
:1005C000000C014010B504460A4890F8080170B1CB
:1005D00034B1402303221021074801F02AFC07E030
:1005E000402303220421044801F023FC00E000BF63
:1005F00010BD000088090020000C014000B505482E
:1006000090F8080120B14021034801F00BFC00E004
:1006100000BF00BD88090020000C014010B506484D
:1006200090F8200128B14FF48061044801F05FFC8C
:1006300010BDFF20FCE700008809002000080140F1
:1006400010B5064890F8200128B14FF480610448A5
:1006500001F0E6FB00E000BF10BD000088090020AB
:100660000008014010B5064890F8200128B14FF469
:100670008061044801F0D2FB00E000BF10BD000023
:10068000880900200008014010B504460B4890F886
:10069000200180B13CB14FF480630322102108484F
:1006A00001F0C7FB08E04FF48063032204210448F3
:1006B00001F0BFFB00E000BF10BD00008809002072
:1006C0000008014000B5064890F8200128B14FF419
:1006D0008061044801F0A6FB00E000BF00BD0000FF
:1006E000880900200008014010B5054890F838013D
:1006F00020B10221034801F0FAFB10BDFF20FCE706
:1007000088090020001C014010B5054890F8380108
:1007100020B10221034801F083FB00E000BF10BDBF
:1007200088090020001C014010B5054890F83801E8
:1007300020B10221034801F071FB00E000BF10BDB1
:1007400088090020001C014010B504460A4890F8B2
:10075000380170B134B1022303221021074801F09F
:1007600068FB07E0022303220421044801F061FB37
:1007700000E000BF10BD000088090020001C0140FF
:1007800000B5054890F8380120B10221034801F076
:1007900049FB00E000BF00BD88090020001C0140AB
:1007A00010B5054890F8500120B10221034801F02E
:1007B0009EFB10BDFF20FCE788090020001C0140C3
:1007C00010B5054890F8500120B10221034801F00E
:1007D00027FB00E000BF10BD88090020001C01407D
:1007E00010B5054890F8500120B10221034801F0EE
:1007F00015FB00E000BF10BD88090020001C01406F
:1008000010B504460A4890F8500170B134B1022383
:1008100003221021074801F00CFB07E0022303220A
:100820000421044801F005FB00E000BF10BD0000FA
:1008300088090020001C014000B5054890F85001CF
:1008400020B10221034801F0EDFA00E000BF00BD35
:1008500088090020001C014010B5054890F8680187
:1008600020B10121034801F042FB10BDFF20FCE74D
:1008700088090020001C014010B5054890F8680167
:1008800020B10121034801F0CBFA00E000BF10BD08
:1008900088090020001C014010B5054890F8680147
:1008A00020B10121034801F0B9FA00E000BF10BDFA
:1008B00088090020001C014010B504460A4890F841
:1008C000680170B134B1012303221021074801F0FF
:1008D000B0FA07E0012303220421044801F0A9FA39
:1008E00000E000BF10BD000088090020001C01408E
:1008F00000B5054890F8680120B10121034801F0D6
:1009000091FA00E000BF00BD88090020001C0140F2
:1009100010B50548007E28B14FF40061034801F08E
:10092000E6FA10BDFF20FCE7880900200010014016
:1009300010B50548007E28B14FF40061034801F06E
:100940006FFA00E000BF10BD8809002000100140D0
:1009500010B50548007E28B14FF40061034801F04E
:100960005DFA00E000BF10BD8809002000100140C2
:1009700010B504460A48007E80B13CB14FF40063D4
:1009800003221021074801F054FA08E04FF40063F5
:1009900003220421034801F04CFA00E000BF10BD1F
:1009A000880900200010014000B50548007E28B1EC
:1009B0004FF40061034801F035FA00E000BF00BDCC
:1009C000880900200010014010B5064890F830005A
:1009D00028B14FF48051044801F089FA10BDFF207E
:1009E000FCE7000088090020000C014010B5064813
:1009F00090F8300028B14FF48051044801F010FA0B
:100A000000E000BF10BD000088090020000C01407C
:100A100010B5064890F8300028B14FF480510448D2
:100A200001F0FCF900E000BF10BD000088090020C3
:100A3000000C014010B504460B4890F8300080B11E
:100A40003CB14FF4805303221021084801F0F1F922
:100A500008E04FF4805303220421044801F0E9F92F
:100A600000E000BF10BD000088090020000C01401C
:100A700000B5064890F8300028B14FF48051044882
:100A800001F0D0F900E000BF00BD0000880900209F
:100A9000000C014010B5054890F8480020B1102125
:100AA000034801F024FA10BDFF20FCE7880900206C
:100AB000000C014010B5054890F8480020B1102105
:100AC000034801F0ADF900E000BF10BD8809002027
:100AD000000C014010B5054890F8480020B11021E5
:100AE000034801F09BF900E000BF10BD8809002019
:100AF000000C014010B504460A4890F8480070B157
:100B000034B1102303221946074801F092F907E097
:100B1000102303220421044801F08BF900E000BFF8
:100B200010BD000088090020000C014000B50548F8
:100B300090F8480020B11021034801F073F900E05B
:100B400000BF00BD88090020000C014010B5064818
:100B500090F8600028B14FF48041044801F0C7F9D3
:100B600010BDFF20FCE7000088090020000C0140B8
:100B700010B5064890F8600028B14FF48041044851
:100B800001F04EF900E000BF10BD00008809002010
:100B9000000C014010B5064890F8600028B14FF4F1
:100BA0008041044801F03AF900E000BF10BD0000A8
:100BB00088090020000C014010B504460B4890F84D
:100BC000600080B13CB14FF48043032210210848FB
:100BD00001F02FF908E04FF4804303220421044878
:100BE00001F027F900E000BF10BD000088090020D7
:100BF000000C014000B5064890F8600028B14FF4A1
:100C00008041044801F00EF900E000BF00BD000083
:100C100088090020000C014010B5064890F87800C3
:100C200028B14FF40061044801F061F910BDFF20C4
:100C3000FCE70000880900200010014010B50648BC
:100C400090F8780028B14FF40061044801F0E8F80A
:100C500000E000BF10BD0000880900200010014026
:100C600010B5064890F8780028B14FF400610448A8
:100C700001F0D4F800E000BF10BD0000880900209A
:100C80000010014010B504460B4890F8780080B180
:100C90003CB14FF4006303221021084801F0C9F869
:100CA00008E04FF4006303220421044801F0C1F876
:100CB00000E000BF10BD00008809002000100140C6
:100CC00000B5064890F8780028B14FF40061044858
:100CD00001F0A8F800E000BF00BD00008809002076
:100CE0000010014010B5054890F8900020B1202177
:100CF000034801F0FCF810BDFF20FCE78809002044
:100D00000010014010B5054890F8900020B1202156
:100D1000034801F085F800E000BF10BD88090020FD
:100D20000010014010B5054890F8900020B1202136
:100D3000034801F073F800E000BF10BD88090020EF
:100D40000010014010B504460A4890F8900070B1B8
:100D500034B1202303221021074801F06AF807E08C
:100D6000202303220421044801F063F800E000BFBF
:100D700010BD0000880900200010014000B50548A2
:100D800090F8900020B12021034801F04BF800E0DA
:100D900000BF00BD880900200010014010B50648C2
:100DA00090F8A80028B14FF40061044801F09FF8C2
:100DB00010BD0020FCE70000880900200008014069
:100DC00010B5064890F8A80028B14FF40061044817
:100DD00001F026F800E000BF10BD000088090020E7
:100DE0000008014010B5064890F8A80028B14FF45B
:100DF0000061044801F012F800E000BF10BD0000DF
:100E0000880900200008014010B504460B4890F8FE
:100E1000A80080B13CB14FF40063032210210848C0
:100E200001F007F808E04FF40063032204210448AE
:100E300000F0FFFF00E000BF10BD000088090020A7
:100E40000008014000B5064890F8A80028B14FF40A
:100E50000061044800F0E6FF00E000BF00BD0000B4
:100E6000880900200008014010B5054890F8C0002E
:100E700020B10121034801F03AF810BDFF20FCE742
:100E800088090020001C014010B5054890F8C000FA
:100E900020B10121034800F0C3FF00E000BF10BDF6
:100EA00088090020001C014010B5054890F8C000DA
:100EB00020B10121034800F0B1FF00E000BF10BDE8
:100EC00088090020001C014010B504460A4890F82B
:100ED000C00070B134B1012303221021074800F093
:100EE000A8FF07E0012303220421044800F0A1FF2A
:100EF00000E000BF10BD000088090020001C014078
:100F000000B5054890F8C00020B10121034800F069
:100F100089FF00E000BF00BD88090020001C0140DF
:100F200010B5064890F8D80028B14FF400410448A5
:100F300000F0DDFF10BDFF20FCE700008809002065
:100F40000008014010B5064890F8D80028B14FF4C9
:100F50000041044800F064FF00E000BF10BD000045
:100F6000880900200008014010B5064890F8D80014
:100F700028B14FF40041044800F050FF00E000BFEA
:100F800010BD0000880900200008014010B504468B
:100F90000B4890F8D80080B13CB14FF400430322D5
:100FA0001021084800F045FF08E04FF400430322F9
:100FB0000421044800F03DFF00E000BF10BD000028
:100FC000880900200008014000B5064890F8D800C4
:100FD00028B14FF40041044800F024FF00E000BFB6
:100FE00000BD000088090020000801400148007889
:100FF00070470000240000204FF0E0218969064A74
:101000001288B1FBF2F1C1F57A71044AD18006CAA7
:10101000C0E90012704700001C00002014000020EE
:1010200003B584B017488088BDF81410401A00EE4C
:10103000100AB8EEC00A9FED141AC0EE010A11485A
:1010400000680499401A00EE100AB8EE400A70EEEB
:10105000800A6846FFF7D0FFDDE90001CDE9020113
:10106000BDF80E00BDF81610401A00EE100AB8EEDA
:10107000C00A9FED061AC0EE011A30EEA10A06B0B2
:1010800000BD00001400002000007A4400247449D0
:1010900010B51748006817490840B0F1005F25D126
:1010A0001348001D00681449086008460068134989
:1010B00008600F49086880F3088800BF002008E036
:1010C0004FF0FF320E4941F820200E4941F8202010
:1010D000401C0828F4DB01F0CDF800204FF0E0219F
:1010E000086148618861054800688047002010BD9C
:1010F000007800080000FE2F100000200C000020E7
:1011000080E100E080E200E000BFFEE700BFFEE714
:101110000246012002E050434B1ED9B20029FAD109
:10112000704770477047000030B52DED028B83B0DB
:101130000446B0EE408A002501A8FFF75DFF0D4888
:10114000DDE9011206C00AE0012221460A4800F04A
:1011500061F820B1012003B0BDEC028B30BD054821
:1011600003C8FFF75DFFB4EEC80AF1EE10FAEBD347
:101170000020F0E72800002054010020F0B52DEDFC
:10118000028B83B006460F46B0EE408AB0EE480AA6
:1011900002A8FFF7C9FF20B9002003B0BDEC028B05
:1011A000F0BD9DF80800012804D0022804D00428CE
:1011B00008D104E0802505E04FF4806502E06FF07F
:1011C0000100EAE700BFB0EE480A01A8FFF7ACFF54
:1011D000B0EE480A6846FFF7A7FF9DF8000080F0D0
:1011E000FF009DF80410884202D04FF0FF30D4E792
:1011F000002409E000BF3019B0EE480AFFF794FF61
:101200000128F8D1601C04B2A81C8442F2DB3D60C6
:101210000120C2E730B50346002414E018885D8839
:10122000A84201D1002030BD1D88181D405D087006
:101230001888401C80B21880B0F5006F01DB0020D8
:101240001880601CC4B29442E8DB0120EBE770B563
:101250000B4600211BE05D5C4688041DA5554488B3
:10126000641CA4B24480B4F5006F01DB0024448008
:1012700044880588AC4208D10488641CA4B2048068
:10128000B4F5006F01DB002404804C1CE1B29142F4
:10129000E1DB70BD7047F0B506460027002404E08E
:1012A000305D00B903E0601CC4B2102CF8DB00BF55
:1012B00000253FE0601B401E305C30280EDB601BC9
:1012C000401E305C392809DC29460A20FFF720FF40
:1012D000611B491E715C303901FB0077601B401EA9
:1012E000305C61280FDB601B401E305C66280ADC26
:1012F00029460A20FFF70CFF0146601B401E305CA8
:10130000573800FB0177601B401E305C41280FDB23
:10131000601B401E305C46280ADC29460A20FFF785
:10132000F7FE0146601B401E305C373800FB01773A
:10133000681CC5B2A542BDDB3846F0BD08488088B0
:10134000401C0749888008468088B0F57A7F05DB15
:101350000020888008460068401C08607047000034
:101360001400002008B51B48006840F470001949BB
:1013700008601948006840F00100174908600846F5
:10138000406840F0800048600020009002E0009833
:10139000401C009044F6206100988842F7D30E4824
:1013A000406820F003000C494860084600680B497B
:1013B0000840094908604FF41F008860084600682B
:1013C00020F48020086000204860C86201F04EF9D7
:1013D00008BD000088ED00E000100240FFFFF6FEAF
:1013E00030B51A4800684FF47A72B0FBF2F1481E2B
:1013F000B0F1807F00D31BE0481E4FF0E022506127
:1014000050170022002807DA13071D0E104B00F0BA
:101410000F04241F1D5503E013071C0E0D4B1C5415
:1014200000BF00204FF0E02290610720106100BF54
:101430000020094908608880C8800448006807497E
:10144000B0FBF1F00649088030BD0000000000202C
:1014500018ED00E000E400E01400002040420F001E
:101460001C00002010B50A490A4801F041FA50B1A9
:101470000948006838B1074801F0AAF9C4B220460B
:101480000549096888470249024801F024FA10BD5D
:1014900005030500003801403800002010B50A4956
:1014A0000A4801F025FA50B10948006838B10748E8
:1014B00001F08EF9C4B220460549096888470249FF
:1014C000024801F008FA10BD050305000044004081
:1014D0003C00002010B50A490A4801F009FA50B151
:1014E0000948006838B1074801F072F9C4B22046D3
:1014F0000549096888470249024801F0ECF910BD26
:101500000503050000480040400000200149086034
:10151000704700004000002000BFFEE72DE9F043C7
:10152000ADF60C0D4FF0000900250027A84684E019
:10153000B6EE000A01A90DF58160FFF71FFE10F15C
:10154000020F67D0B0F1FF3F60D0002872D00128B1
:1015500072D1022D07D1062001F0E2F801200DF62C
:101560000C0DBDE8F083002F38D1002405E00DF507
:101570008160005D31490855641C0DF58160005D96
:101580000028F4D100222046641C2C490A5400266D
:1015900006E00DF58160005D29498855641C761CC4
:1015A0000DF58160005D0028F3D100222046641C07
:1015B00023490A540846FFF76EFE8046B8F5F12F1E
:1015C00001DB0020CBE741461E48FEF7BDFE0620AA
:1015D00001F0A6F8432001F0A3F815E00DF58161B4
:1015E00002A8019AFEF714FE019882B202A91648D9
:1015F0000068FEF7D5FE14480068019908441249B6
:101600000860062001F08CF87F1C15E0152001F021
:1016100087F811E06D1C012D02D1152001F080F832
:10162000022D05D1062001F07BF8432001F078F867
:1016300002E0FFE7002092E700BF79E744000020C6
:1016400044010020007800082000002038B504463E
:1016500000940748007828B99DF80000012801D1BE
:1016600003490870012269460248FFF7F0FD38BDC2
:10167000240000205401002010B50248FFF746FF67
:1016800010BD00004D16000810B5202303220421D0
:10169000964800F0CEFB9648964948609648886088
:1016A0009648C860964808619648486101200870CD
:1016B000C302032204218D4800F0BBFB92498D48F0
:1016C000C1619249016292494162924981629249A3
:1016D000C162012087490876904986484163904954
:1016E00081639049C163904901649049416400203D
:1016F000804981F830008E497E48C1648D4901657A
:101700008D4941658D4981658D49C16500207949C3
:1017100081F848008B49774841668B4981668B493F
:10172000C1668B4901678B4941670020714981F887
:10173000600089496F48C1678849C0F880108849AE
:10174000C0F884108749C0F888108749C0F88C1009
:101750000020684981F8780084496648C0F89410F0
:101760008349C0F898108349C0F89C108249C0F89A
:10177000A0108249C0F8A41000205E4981F89000B2
:101780007F495C48C0F8AC107E49C0F8B0107E4973
:10179000C0F8B4107D49C0F8B8107D49C0F8BC103D
:1017A0000020544981F8A8007A495248C0F8C41072
:1017B0007949C0F8C8107949C0F8CC107849C0F808
:1017C000D0107849C0F8D41000204A4981F8C000F0
:1017D00075494848C0F8DC107449C0F8E0107449F5
:1017E000C0F8E4107349C0F8E8107349C0F8EC1071
:1017F0000020404981F8D80070493E48C0F8F410F4
:101800006F49C0F8F8106F49C0F8FC106E49C0F875
:1018100000116E49C0F804110020364981F8F0002B
:101820006B493448C0F80C116A49C0F810116A4974
:10183000C0F814116949C0F818116949C0F81C11A1
:1018400000202C4981F8080166492A48C0F8241173
:101850006549C0F828116549C0F82C116449C0F8E1
:1018600030116449C0F834110020224981F8200168
:1018700061492048C0F83C116049C0F840116049F6
:10188000C0F844115F49C0F848115F49C0F84C11D5
:101890000020184981F838015C491648C0F85411F5
:1018A0005B49C0F858115B49C0F85C115A49C0F84F
:1018B00060115A49C0F8641100200E4981F85001A6
:1018C00057490C48C0F86C115649C0F87011564978
:1018D000C0F874115549C0F878115549C0F87C1109
:1018E0000020044981F8680110BD0000001001408B
:1018F0001904000888090020390400088D04000834
:10190000F9030008590400083109000851090008CA
:10191000A90900081109000871090008ED0900086B
:10192000110A0008710A0008C9090008350A0008F0
:10193000B50A0008D50A00082D0B0008950A000812
:10194000F50A0008710B0008950B0008F50B00085C
:101950004D0B0008B90B00083D0C0008610C000895
:10196000C10C0008190C0008850C0008050D0008C2
:10197000250D00087D0D0008E50C0008450D000848
:10198000C10D0008E50D0008450E00089D0D00087A
:10199000090E0008890E0008A90E0008010F0008B2
:1019A000690E0008C90E0008450F0008690F0008FD
:1019B000C90F0008210F00088D0F0008CD04000892
:1019C000ED04000845050008AD0400080D050008F9
:1019D00085050008A5050008FD0500086505000847
:1019E000C50500084106000865060008C506000890
:1019F0001D060008890600080907000829070008D5
:101A000081070008E906000849070008C107000827
:101A1000E107000839080008A107000801080008CC
:101A20007908000899080008F1080008590800081A
:101A3000B90800080CB503466846FFF7DDFA00BF99
:101A4000DDE90001FFF7ECFAF0EE400A00EE103A93
:101A5000B8EE400A9FED041AC0EE011AF4EEE10A56
:101A6000F1EE10FAECD90CBD0024744910B52C4BE2
:101A70001B6883432A4C2360231D1B688343241D5A
:101A80002360231D1B688343241D2360231D1B68C3
:101A90008343241D236011B101290ED105E0204BA1
:101AA0001B6803431E4C236008E01D4B1B1D1B6875
:101AB00003431B4C241D236000E000BF00BF22B184
:101AC000012A0FD0022A27D119E0154B08331B68D1
:101AD0000343134C08342360231D1B688343241DD8
:101AE00023601AE00E4B08331B6883430C4C083408
:101AF0002360231D1B680343241D23600DE0084B56
:101B000008331B680343064C08342360231D1B68FD
:101B10000343241D236000E000BF00BF10BD000090
:101B20000004014001460748006800EA0102054838
:101B30001438006800EA010312B10BB101207047AC
:101B40000020FCE71404014000B50346012200BF59
:101B500000F00CF802465B1E012A01D1002BF7D1E0
:101B6000012A00D10422104600BD000000200A49CD
:101B7000C96801F0010109B101200CE00649C968FA
:101B800001F0100109B1032005E00349C96801F023
:101B9000040101B1022070470020024000B5034655
:101BA000012200BF00F00CF802465B1E012A01D1A1
:101BB000002BF7D1012A00D10422104600BD0000FD
:101BC00000200A49C96C01F0010109B101200CE0B3
:101BD0000649C96C01F0100109B1032005E0034971
:101BE000C96C01F0040101B10220704700200240DD
:101BF0000848006940F080000649086106480088EE
:101C0000B0F5007F04D90846006D40F080000865FB
:101C10007047000000200240E0F7FF1F30B5054686
:101C200033480088B0F5007F44D9324885421CD241
:101C30003148FFF789FF0446002C56D12F48006930
:101C400040F002002D49086108464561006940F0F6
:101C5000400008612848FFF777FF044627480069DD
:101C600020F00200254908613FE02348FFF796FF76
:101C70000446002C39D12148006D40F002001F4974
:101C8000086508464565C06900F0020008B10846CD
:101C900045611A48006D40F0400018490865164833
:101CA000FFF77CFF04461548006D20F00200134941
:101CB00008651AE01048FFF747FF0446ACB90F4823
:101CC000006940F002000D4908610846456100695D
:101CD00040F0400008610848FFF736FF0446074817
:101CE000006920F0020005490861204630BD00006F
:101CF000E0F7FF1FFFFF07080000FF0F0020024072
:101D00000C48006900F0800020B10B480949486088
:101D10000A4848600A480088B0F5007F09D905489C
:101D2000006D00F0800020B1034802494864034878
:101D3000486470470020024023016745AB89EFCD1E
:101D4000E0F7FF1F70B504460D46002627480088BF
:101D5000B0F5007F31D92648844217D22548FFF7D5
:101D6000F3FE0646002E3ED12348006940F00100F4
:101D70002149086125601F48FFF7E6FE06461E4818
:101D8000006920F001001C4908612CE01948FFF7A8
:101D900005FF06463EBB1848006D40F0010016499D
:101DA000086525601348FFF7F9FE06461248006DE6
:101DB00020F001001049086515E00E48FFF7C4FE49
:101DC000064686B90C48006940F001000A490861DE
:101DD00025600848FFF7B8FE06460748006920F06E
:101DE000010005490861304670BD0000E0F7FF1FA3
:101DF000FFFF07080000FF0F0020024070B50546F6
:101E00000C4604EB4400044A02EBC00118222846A9
:101E1000FEF7FEF970BD000088090020416170479F
:101E200001617047C2680A400AB1416100E0016186
:101E30007047F0B5044616460025002201F00F0554
:101E400001F0100747B1042E05D145F00305E76BFB
:101E50001F43E76300E0354300201EE00127874071
:101E60001F40C7B122684FEA800C0F2707FA0CF712
:101E7000BA43870005FA07F73A43282904D1012716
:101E800087401F40676105E0482903D1012787404B
:101E90001F4027612260471CB8B20828DED3082003
:101EA00022E0012787401F40E7B16268A0F10807E0
:101EB0004FEA870C0F2707FA0CF7BA43A0F108077F
:101EC000BF0005FA07F73A43282904D101278740C4
:101ED0001F40676105E0482903D1012787401F4063
:101EE00027616260471CB8B21028DAD3F0BD024601
:101EF0009068084008B1012070470020FCE700000E
:101F000010B52DED028B92B04FF4407000F0FCF84C
:101F10004FF4C06000F084FA40F2026000F080FAF2
:101F200040F2036000F07CFA40F2046000F078FABE
:101F300040F2056000F074FA40F2066000F070FABA
:101F400040F2076000F06CFAFFF74AFA00F07CFDFF
:101F5000FFF79AFB4FF4E13000F08CFBFFF78CFBAE
:101F600000216846FFF74AFF182269460CA8FEF7D1
:101F70004FF901216846FFF741FF1822694606A87C
:101F8000FEF746F904A8FFF737F82B48DDE90412FD
:101F900006C010988047012847D145E0264803C86D
:101FA000FFF73EF810EE104A204600F059FE41ECD3
:101FB000180B9FED220B53EC102B00F01BFE09D2E7
:101FC000432000F0ADFB04A8FFF716F81A48DDE93E
:101FD000041206C002A8FFF70FF8DDE90201CDE9FF
:101FE0000401BDF81400B0F5FA7F05DD00221146AA
:101FF000FF2000F0C1FC04E0FF220021084600F0B1
:10200000BBFCFEF7F3FF78B100221146FF2000F081
:10201000B3FCFFF783FAC04330B1002211461046EB
:1020200000F0AAFCFFF734F8B8E7FFF731F800201A
:1020300012B0BDEC028B10BD0400002033333333EB
:102040003333D33F2DE9F04103460D4616460024B5
:102050000027A0462A48006800F4E060B0F5E06F71
:1020600003D100BF4FF0040830E02548006800F4B9
:10207000E060B0F5C06F03D101274FF0030825E001
:102080001F48006800F4E060B0F5A06F02D102279D
:10209000B8461BE01A48006800F4E060B0F5806FB5
:1020A00003D103274FF0010810E01548006800F441
:1020B000E060B0F5407F03D104274FF0000805E051
:1020C0004FF4A06000F020F80227B846C7F10400E2
:1020D00005FA00F4C8F104010F20C8403040044361
:1020E00024010848C45403F01F01012088405911FD
:1020F000890001F1E021C1F80001BDE8F081000094
:102100000CED00E000E400E002490143024A1160E6
:10211000704700000000FA050CED00E02DE9F04FDB
:102120008CB0074600200A904AA090E8004CC06896
:10213000CDE905BECDF810A007900FF21C1ADAE920
:10214000000ACDE9020A0FF2101ADAE9000ACDE915
:10215000000A44484068C0F381000B900B9820B1FE
:10216000012804D002283FD103E03F4A3EE03E4A26
:102170003CE03C48406800F4803CBCF5803F12D114
:102180003848C06A00F08048B8F1000F01D1364BE2
:1021900000E0364B3348406800F40039B9F5003FA1
:1021A00002D15B0800E0324B2E484068C0F3834107
:1021B0002C48406800F0006008B141F01001294847
:1021C000406800F0804008B141F020010F2901D2A1
:1021D000891C06E00F2903D33E2901D8491C00E0E1
:1021E0003F2103FB01F201E01F4A00BF00BF1D4871
:1021F0004068C0F3031504A8465D22FA06F41948A6
:102200004068C0F3022502A8465D24FA06F0099052
:1022100014484068C0F3C2251DF8056024FA06F092
:10222000089037B1012F06D0022F06D0032F0AD114
:1022300006E00A9208E00A9406E009980A9003E092
:1022400008980A9000E000BF00BF0A980CB0BDE8F3
:10225000F08F0000000000000000000001020304F5
:10226000060708090010024000127A00006CDC0228
:1022700000093D0000B51A48006840F00100184907
:102280000860002000F044F81548406820F0030082
:102290001349486008460068124908401049086020
:1022A0000846006820F480200860084640680E490F
:1022B00008400B494860084600680A490840084938
:1022C00008600846006820F4802008604FF41F0072
:1022D00088600846C06A20F0C040C86200BD0000A7
:1022E00000100240FFFFF6FE0C0000200146074AE6
:1022F00002EB9110006801F01F0301229A40104088
:1023000008B1012070470020FCE7000000100240E7
:10231000F0B50646002400270025B6F5006F1FD053
:1023200005DC86B3102E0BD0182E72D160E0B6F506
:10233000106F4BD0A6F540501038002869D133E01B
:1023400004E01120FFF7D2FF0546641C15B9B4F56F
:10235000006FF6D11120FFF7C9FF00B1012759E046
:1023600005E040F60100FFF7C1FF0546641C1DB9FA
:102370006FF07C408442F4D140F60100FFF7B6FFD5
:1023800000B1012746E0FFE704E00120FFF7AEFFC0
:102390000546641C15B9B4F5A06FF6D10120FFF70E
:1023A000A5FF00B1012735E005E043F21100FFF77A
:1023B0009DFF0546641C15B918488442F5D143F2C7
:1023C0001100FFF793FF00B1012723E005E040F67D
:1023D0000110FFF78BFF0546641C15B90F488442B6
:1023E000F5D140F60110FFF781FF00B1012711E0A0
:1023F00004E01920FFF77AFF0546641C15B9074869
:102400008442F6D11920FFF771FF00B1012701E0E6
:10241000FFE700BF00BF3846F0BD0000FFFF0F0020
:10242000064A02EB9011096800F01F0301229A404E
:102430001143024B03EB90121160704700100240F1
:10244000064A02EB9011096800F01F0301229A402E
:102450009143024B03EB9012116070470010024051
:10246000064A02EB9011096800F01F0301229A400E
:102470001143024B03EB90121160704700100240B1
:1024800010B5044600BF0221044800F03DF80028C2
:10249000F9D02146014800F008F810BD003800408E
:1024A000016841F0400101607047C1607047000061
:1024B00010B504461348204470B1B0F5806F14D0B5
:1024C000B0F5784F1AD14FF44370FFF7C9FF4FF4BE
:1024D0004370FFF7B5FF12E040F20E40FFF7C0FF78
:1024E00040F20E40FFF7ACFF09E040F20F40FFF76B
:1024F000B7FF40F20F40FFF7A3FF00E000BF00BFAF
:1025000010BD000000C8FFBF02469068084008B137
:10251000012070470020FCE702460020106800F40C
:1025200041500B6818434B6818438B681843CB68BD
:1025300018430B6918434B6918438B6918431060A3
:10254000D36923F40063D3617047002101604160C7
:102550008160C1604161816101617047002000219B
:102560003E4A126842F480323C4B1A6000BF401C65
:102570003A4A126802F4003111B9B0F5006FF6D191
:10258000364A126802F400320AB900BFFEE7334A45
:10259000D26942F08052314BDA61314A126842F41A
:1025A00040422F4B1A602D4A52682C4B5A601A46F3
:1025B00052685A601A46526842F480625A601A465B
:1025C000526822F440325A601A46526842F440324D
:1025D0005A601A465268234B1A40204B5A601A46DA
:1025E0005268214B1A431D4B5A601A46126842F03A
:1025F00080721A6000BF194A126802F00072002A45
:10260000F9D0174A126842F48032154B1A6000BFA5
:10261000134A526802F48032002AF9D0104A126834
:1026200042F400320E4B1A6000BF0D4A526802F4A9
:102630000032002AF9D0094A526822F00302074BFF
:102640005A601A46526842F002025A6000BF034ABA
:10265000526802F00802002AF9D0704700100240C8
:1026600000700040FFFFC3B70000340810B5FFF74B
:1026700075FF10BD10B5044640F20360FFF7D0FEB1
:1026800040F21270FFF7CCFE4FF480630322182152
:102690002048FFF7CEFB4FF40063032204211D48BE
:1026A000FFF7C7FB40F21270FFF7BAFE00220121CC
:1026B0002720FFF7C7FC184800F094F82146164879
:1026C00000F03EF80021144800F02EF900211248D5
:1026D00000F04AF90021104800F036F900210E48B8
:1026E00000F0E4F800210C4800F0D8F804210A4872
:1026F00000F022F90821084800F02EF940F20531D7
:10270000054800F0DBF8044800F0B4F80020034965
:10271000086010BD000C014000480040400000204F
:1027200010B5044600BF0721044800F0A8F80028AF
:10273000F9D02146014800F050F810BD0048004093
:102740002DE9F04704460D460027B846B946002655
:102750001D49601A8C421CD006DC1C48204470B114
:10276000B0F5806F1FD10FE0B0F5806F16D0B0F5D7
:102770006C4F18D10320FFF7D1FC074614E002206C
:10278000FFF7CCFC07460FE00220FFF7C7FC074627
:102790000AE00220FFF7C2FC074605E00220FFF72F
:1027A000BDFC074600E000BF00BF07EB5500B0FBD3
:1027B000F5F64FF6F07006EA000806F00F0948EA51
:1027C0000900A060BDE8F087004C004000BCFFBFDE
:1027D00001464868C0F308007047C1F30802426030
:1027E0007047000010B504462049601A8C4228D07A
:1027F00006DC1F48204490B1B0F5806F33D117E05C
:10280000B0F5806F26D0B0F56C4F2CD140F20E3071
:10281000FFF726FE40F20E30FFF712FE24E040F2F2
:102820001140FFF71DFE40F21140FFF709FE1BE0CB
:1028300040F21240FFF714FE40F21240FFF700FE94
:1028400012E040F21340FFF70BFE40F21340FFF797
:10285000F7FD09E040F21440FFF702FE40F2144099
:10286000FFF7EEFD00E000BF00BF10BD004C0040D0
:1028700000BCFFBFC16841F40051C160704710B592
:10288000024602EB9110006801F01F040123A340EF
:10289000184008B1012010BD0020FCE70A460021C5
:1028A000416921F400711143416170470A460021DA
:1028B000416921F4807111434161704710B500EB0B
:1028C0009112126801F01F040123A3401A4300EB88
:1028D00091131A6010BD10B500EB91521268C1F34C
:1028E00004440123A3409A4300EB91531A6010BDA6
:1028F00070B5024600230024C1F38910105801F07E
:102900001F060125B54000EA050302EB915000685F
:10291000C1F304460125B54000EA050414B10BB12A
:10292000012070BD0020FCE7C26822F4C062C260D2
:10293000C2680A43C26070470A460021C16821F09C
:1029400004011143C1607047026922F440520261E0
:1029500002690A43026170470A460021C16821F0FA
:1029600008011143C1607047C26822F48052C260FE
:10297000C2680A43C26070472DE9F04105460F4620
:102980001646002411E007FA04F000F080008028C9
:1029900004D11F202B4921F8140004E040F2FF70FD
:1029A000284921F81400601CC4B2082CEBDB002479
:1029B00015E005FA04F000F08000802806D11F2100
:1029C000204A04F1080022F8101006E040F2FF71DE
:1029D0001C4A04F1080022F81010601CC4B2082C34
:1029E000E7DB002415E006FA04F000F08000802800
:1029F00006D11F21134A04F1100022F8101006E03E
:102A000040F2FF710F4A04F1100022F81010601C10
:102A1000C4B2082CE7DB002405E04FF6FF70FFF797
:102A20002FFD601CC4B2642CF7DB002406E00549CE
:102A300031F81400FFF724FD601CC4B2182CF6DB3B
:102A4000BDE8F0815809002010B500F001F810BD74
:102A500000B587B040F20E70FFF7E2FC40F2036071
:102A6000FFF7DEFC4FF40043032218211148FFF763
:102A7000E0F91148FFF71CFD6846FFF766FD4FF4CB
:102A8000404001904FF4827000904FF4006002903B
:102A90000220059000020390082006900020049078
:102AA00069460548FFF738FD0348FFF7F9FC07B012
:102AB00000BD0000000C014000380040491058BF24
:102AC000C1F140415B1058BFC3F140438B42EFF36B
:102AD0000080704751EA030C17D41CF5801F58BFC3
:102AE000BCF5801F00F10680994218BF704708BFEF
:102AF0009042704707D711F5801F58BF13F5801F0C
:102B000019D499427047894270471CF5801F08D537
:102B1000BCF5801FF7D58B4218BF704708BF8242B3
:102B200070474FF4001C1CEB410F38BF1CEB430FE8
:102B300001D28B42704770B500F008F8922449002A
:102B40004FF000514FF08053FFF7B8BF0EF1020E67
:102B50002EF0030E5EF8046B364205D4012A43EBD7
:102B6000030515F5001F12D8012841EB010C1CF5D7
:102B7000001F0CD80ED14FEAD17C15F5001F0CEBCD
:102B80004C0C0CF1020C08BF4CEBD37C04E04FF072
:102B9000080C01E04FEAD37C0CEB4C0526FA05F655
:102BA00006F00706B6F1040C06D20EEB860CBDE863
:102BB00070404CF0010C6047DFE80CF0090B02029A
:102BC0004FF000414FF00000A1F5002170BD194603
:102BD0001046012851EB010418BFD4F5001484BF3E
:102BE000002001F0004170BD0808A0F500114FEA77
:102BF0003101704753EA010C17D41CF5801F58BFF0
:102C0000BCF5801F00F106808B4218BF704708BFDB
:102C10008242704707D713F5801F58BF11F5801FF8
:102C200019D48B4270479B4270471CF5801F08D512
:102C3000BCF5801FF7D5994218BF704708BF904276
:102C400070474FF4001C1CEB430F38BF1CEB410FC7
:102C500001D2994270470FB40CBC03BCFFF76BBFA5
:102C600043004FEAD30C4FEA3C0C43401FBF4007E0
:102C70000CF1605113F0FE4F70471CF0006F03D150
:102C800000200CF0004170470CF0004343EA507004
:102C900010B540EACC0000F00EF800BF0000009232
:102CA0004FEA0001FFF7A0BF4FF000414FF00000D6
:102CB000A1F5002170470EF1020E2EF0030E5EF812
:102CC000044B244204D44FEA4102B2F17F4F11D8A1
:102CD0004FEA4003B3F17F4F0CD80ED14FEAD07CBE
:102CE000B2F17F4F0CEB4C0C0CF1020C08BF4CEB1B
:102CF000D17C04E04FF0080C01E04FEAD17C0CEBF2
:102D00004C0324FA03F404F00704B4F1040C06D2D3
:102D10000EEB840CBDE810404CF0010C6047DFE87E
:102D20000CF0070802024FF00040A0F5800010BD33
:102D30000846420018BFD2F1807288BF00F0004000
:102D400010BD4FF04070E1EE100A70476C2D000886
:102D500000000020440000006C010008B02D0008B5
:102D6000440000202413000088010008000E2707FB
:102D70000000000000000000000000000000000053
:102D800000000000000000000000000000780008C3
:102D90000000000000000000000000000000000033
:102DA0000000000000000000000000000000000023
:0400000508000131BD
:00000001FF
