:020000040800F2
:10780000FF9F002091FB000839F700083BF70008B4
:107810003DF700083FF7000841F7000800000000AE
:10782000000000000000000000000000117C0008C3
:1078300043F7000800000000B17C000831F60008A2
:10784000E1FB0008E1FB0008E1FB0008E1FB0008A8
:10785000E1FB0008E1FB0008E1FB0008E1FB000898
:10786000E1FB0008E1FB0008E1FB0008000000006C
:10787000E1FB0008E1FB0008E1FB0008E1FB000878
:10788000E1FB0008E1FB0008E1FB0008E1FB000868
:10789000E1FB0008E1FB0008E1FB000879B100080A
:1078A000E1FB0008E1FB0008E1FB0008E1FB000848
:1078B00015B4000859B40008A1B40008E1FB0008A1
:1078C000E1FB0008E1FB0008E1FB0008E1FB000828
:1078D000E1FB0008A5CF0008D9CF0008DDD00008E3
:1078E00051B10008E1FB0008E1FB0008E1FB0008E2
:1078F000E1FB0008E1FB0008E1FB0008E1FB0008F8
:10790000E1FB0008E1FB0008E9B40008E1FB000826
:107910001DD1000809D20008CDCE00086DCF0008A7
:10792000E1FB0008E1FB0008E1FB0008E1FB0008C7
:1079300010B5054C237833B9044B13B10448AFF3A9
:1079400000800123237010BD7C0500200000000092
:10795000B0FD000808B5034B1BB103490348AFF362
:10796000008008BD0000000080050020B0FD000878
:10797000844641EA000313F003036DD1403A41D33A
:1079800051F8043B40F8043B51F8043B40F8043BF9
:1079900051F8043B40F8043B51F8043B40F8043BE9
:1079A00051F8043B40F8043B51F8043B40F8043BD9
:1079B00051F8043B40F8043B51F8043B40F8043BC9
:1079C00051F8043B40F8043B51F8043B40F8043BB9
:1079D00051F8043B40F8043B51F8043B40F8043BA9
:1079E00051F8043B40F8043B51F8043B40F8043B99
:1079F00051F8043B40F8043B51F8043B40F8043B89
:107A0000403ABDD2303211D351F8043B40F8043B28
:107A100051F8043B40F8043B51F8043B40F8043B68
:107A200051F8043B40F8043B103AEDD20C3205D338
:107A300051F8043B40F8043B043AF9D2043208D030
:107A4000D2071CBF11F8013B00F8013B01D30B88A2
:107A500003806046704700BF082A13D38B078DD080
:107A600010F003038AD0C3F10403D21ADB071CBF52
:107A700011F8013B00F8013B80D331F8023B20F8BC
:107A8000023B7BE7043AD9D3013A11F8013B00F8F5
:107A9000013BF9D20B7803704B7843708B7883707D
:107AA00060467047034B0360034B0B6080231360F9
:107AB000704700BF9807002098050020034B036023
:107AC000034B0B604FF4807313607047F40B00207E
:107AD000F407002000F1080343604FF0FF3282609A
:107AE000C360036100230360704700230361704794
:107AF00043684B609A688A605160996008610368C6
:107B000001330360704730B40D68B5F1FF3F11D009
:107B100000F108031C465B681A68AA42FAD9636838
:107B20004B6099608C606160086103680133036099
:107B300030BC70470469F2E70369416882688A6073
:107B4000416851605A68824206D0002202611A6878
:107B5000013A1A601868704782685A60F5E70000B9
:107B600082B0002301930D4B1B68B3F1FF3F08D097
:107B70004FF0500383F31188BFF36F8FBFF34F8F24
:107B8000FEE74FF0500383F31188BFF36F8FBFF30D
:107B90004F8F019B002BFCD002B0704700000020EB
:107BA00008480068006880F308884FF0000080F300
:107BB000148862B661B6BFF34F8FBFF36F8F00DFDB
:107BC00000BF000008ED00E0DFF80C00016841F4A0
:107BD000700101607047000088ED00E04FF0807395
:107BE00040F8043C21F0010140F8081C054B40F826
:107BF0000C3C40F8202C6FF0020340F8243C443841
:107C0000704700BF617B000800000000000000001A
:107C1000074B19680868B0E8F04F80F30988BFF394
:107C20006F8F4FF0000080F311887047AFF3008032
:107C3000B02C00204FF0500383F31188BFF36F8FF7
:107C4000BFF34F8F0B4A136801331360012B00D031
:107C500070474FF0E023D3F8043D13F0FF0FF7D047
:107C60004FF0500383F31188BFF36F8FBFF34F8F33
:107C7000FEE700BF00000020094B1B6843B94FF02E
:107C8000500383F31188BFF36F8FBFF34F8FFEE76D
:107C9000013B034A13600BB983F31188704700BF9F
:107CA00000000020000000000000000000000000B4
:107CB000EFF30980BFF36F8F154B1A681EF0100F9A
:107CC00008BF20ED108A20E9F04F10602DE909006F
:107CD0004FF0500080F31188BFF34F8FBFF36F8FC9
:107CE00001F094FA4FF0000080F3118809BC196884
:107CF0000868B0E8F04F1EF0100F08BFB0EC108A13
:107D000080F30988BFF36F8F704700BFAFF3008027
:107D1000B02C002008B54FF0500383F31188BFF357
:107D20006F8FBFF34F8F01F043F928B14FF0E0237D
:107D30004FF08052C3F8042D002383F3118808BD4F
:107D40004FF0E022002313619361054B1B68054946
:107D5000A1FB03139B09013B536107231361704788
:107D60004C010020D34D62104FF0E023D3F8002DDA
:107D70003D4B9A421CD04FF0E023D3F8002D3B4BF3
:107D80009A421ED030B583B0394B1A78D2B20192E4
:107D9000FF221A701B78DBB28DF803309DF8033098
:107DA00003F05003334A1370334B07221A601BE071
:107DB0004FF0500383F31188BFF36F8FBFF34F8FE2
:107DC000FEE74FF0500383F31188BFF36F8FBFF3CB
:107DD0004F8FFEE7284A1368013B13609DF803307C
:107DE0005B00DBB28DF803309DF8033013F0800F99
:107DF000F0D1214B1B68032B08D04FF0500383F3C5
:107E00001188BFF36F8FBFF34F8FFEE71B021A4A33
:107E1000136003F4E0631360019BDBB2144A137038
:107E20004FF0E024D4F8203D43F47003C4F8203D23
:107E3000D4F8203D43F07043C4F8203DFFF780FFA5
:107E400000250E4B1D60FFF7BFFED4F8343F43F012
:107E50004043C4F8343FFFF7A3FE01F0D7F9FFF722
:107E60007FFE284603B030BD71C20F4170C20F4182
:107E700000E400E0500C0020540C00200000002022
:107E8000EFF305830F2B0FD9114A9B5CDBB2114A2C
:107E900012789A4208D94FF0500383F31188BFF348
:107EA0006F8FBFF34F8FFEE74FF0E023D3F80C3D09
:107EB00003F4E063084A1268934208D94FF0500374
:107EC00083F31188BFF36F8FBFF34F8FFEE77047C7
:107ED000F0E300E0500C0020540C0020124A12F095
:107EE000070F1ED0D11D21F00701C1F50053134427
:107EF0000A460E480260002141601344083B23F00B
:107F000007030B48036059601960991A51601360A8
:107F1000084B1960084B1960084B4FF000421A607B
:107F200070474FF40053E4E75C0C0020682C0020FD
:107F3000580C0020642C0020602C00205C2C0020B9
:107F4000164B1A461B688342FBD3516802EB010CA7
:107F5000844509D0416800EB010C634509D00360FA
:107F6000904219D01060704740680144516010463B
:107F7000F0E710B40A4C2468A3420BD05B681944A4
:107F8000416013681B680360904200D010605DF888
:107F9000044B70470460F7E7704700BF682C00206F
:107FA000580C002070B5054600F0F4FF344B1B68F8
:107FB000A3B1344B1B681D424AD135B1083515F0C9
:107FC000070F02D025F007050835002D42D02E4BB3
:107FD0001B68AB424DD32D4A146804E0FFF77EFFC7
:107FE000E7E722461C466368AB4202D22368002BB7
:107FF000F7D1234B1B68A3423DD01668083623688F
:10800000136063685B1B102B10D9601910F0070F09
:1080100008D04FF0500383F31188BFF36F8FBFF385
:108020004F8FFEE743606560FFF78AFF626816497D
:108030000B689B1A0B60164909688B4201D21449E0
:108040000B60104B1B68134363600023236002E046
:10805000002600E0002601F037F816F0070F0CD0DC
:108060004FF0500383F31188BFF36F8FBFF34F8F2F
:10807000FEE70026EFE70026EDE7304670BD00BFC3
:10808000580C00205C2C0020602C0020682C002064
:10809000642C002080B338B50446A0F1080550F8E0
:1080A000043C164A1268134208D14FF0500383F380
:1080B0001188BFF36F8FBFF34F8FFEE750F8081C96
:1080C00041B14FF0500383F31188BFF36F8FBFF3BB
:1080D0004F8FFEE723EA020340F8043C00F05AFF0A
:1080E00054F8041C064A13680B4413602846FFF733
:1080F00027FF00F0E9FF38BD704700BF5C2C00206F
:10810000602C00200346406A18B11B6B1868C0F150
:108110003800704710B50446FFF78CFDA26BE36B87
:108120009A4204D00024FFF7A7FD204610BD012489
:10813000F9E710B50446FFF77DFDA36B23B90124D1
:10814000FFF79AFD204610BD0024F9E770B50446FC
:108150001546866B026C5AB903681BB100200136C4
:10816000A66370BD406801F0C5F900236360F6E7BF
:108170006DB98068FFF7FCFB226CA3681344A36011
:108180006268934219D32368A3602846E7E7C06872
:10819000FFF7EEFB226C5142E3689B1AE360226812
:1081A000934202D263680B44E360022D01D00020A9
:1081B000D5E726B1013E0020D1E72846CFE70020D1
:1081C000CDE70346026C6AB110B50846D968114480
:1081D000D9605C68A14201D31968D960D968FFF7FA
:1081E000C7FB10BD704738B50546FFF723FD95F86E
:1081F000454064B201E0013C64B2002C0ADD6B6AC8
:1082000043B105F1240001F07FF80028F3D001F01C
:108210000FF9F0E7FF2385F84530FFF72DFDFFF755
:1082200009FD95F8444064B201E0013C64B2002CC1
:108230000ADD2B6943B105F1100001F065F8002853
:10824000F3D001F0F5F8F0E7FF2385F84430FFF7AD
:1082500013FD38BD38B5E0B10D460446FFF7EAFC22
:108260002368E26B216C01FB023060600020A06398
:10827000A360013A02FB0133E360FF2384F844303A
:1082800084F84530FDB9236963B9FFF7F5FC012097
:1082900038BD4FF0500383F31188BFF36F8FBFF3E6
:1082A0004F8FFEE704F1100001F02EF80028ECD00B
:1082B0004FF0E0234FF08052C3F8042DBFF34F8FEF
:1082C000BFF36F8FE1E704F11000FFF703FC04F147
:1082D0002400FFF7FFFBD8E738B51D46049C0B468A
:1082E00049B92460E063236401212046FFF7B2FF0F
:1082F00084F84C5038BD2260F4E740B94FF0500389
:1083000083F31188BFF36F8FBFF34F8FFEE710B574
:1083100084B01C46844653B192B189B94FF05003E2
:1083200083F31188BFF36F8FBFF34F8FFEE74FF0DA
:10833000500383F31188BFF36F8FBFF34F8FFEE7B6
:108340006AB150230393039B502B13D04FF050037B
:1083500083F31188BFF36F8FBFF34F8FFEE70029C0
:10836000EFD04FF0500383F31188BFF36F8FBFF34B
:108370004F8FFEE7012384F8463000949DF81830B3
:108380006046FFF7A9FF204604B010BD40B94FF08A
:10839000500383F31188BFF36F8FBFF34F8FFEE756
:1083A000F0B583B00C4615460746A1B101FB00F0BD
:1083B0005030FFF7F7FD064650B1002380F84630F5
:1083C00000902B4600F1500221463846FFF784FF0B
:1083D000304603B0F0BD0846EAE7F0B585B001923B
:1083E00088B10F461D460446B1B1022D20D1E36B82
:1083F000012B1DD04FF0500383F31188BFF36F8F13
:10840000BFF34F8FFEE74FF0500383F31188BFF3A4
:108410006F8FBFF34F8FFEE7036C002BE5D04FF05B
:10842000500383F31188BFF36F8FBFF34F8FFEE7C5
:1084300001F004F8064658B9019B002B48D04FF0D4
:10844000500383F31188BFF36F8FBFF34F8FFEE7A5
:1084500000263DE02A4639462046FFF777FE636A4C
:108460007BB948B14FF0E0234FF08052C3F8042DA0
:10847000BFF34F8FBFF36F8FFFF7FEFB012005B0F7
:10848000F0BD04F1240000F03FFF0028F4D04FF0CD
:10849000E0234FF08052C3F8042DBFF34F8FBFF39A
:1084A0006F8FE9E7FFF7E8FB0020E8E702A800F09C
:1084B00071FF012619E0002384F8443021E00023F5
:1084C00084F8453023E02046FFF78DFE00F0FCFDE8
:1084D000FFF7B0FBA26BE36B9A42BBD3022DB9D07E
:1084E000019B002BDED0002EE0D0FFF7C5FB00F093
:1084F00051FDFFF79FFB94F8442052B2B2F1FF3FC9
:10850000D9D094F8452052B2B2F1FF3FD7D0FFF74F
:10851000B3FB01A902A800F049FFD8B92046FFF734
:10852000F9FD0028CFD0019904F1100000F0B8FE49
:108530002046FFF758FE00F0C7FD0028C8D14FF0D5
:10854000E0234FF08052C3F8042DBFF34F8FBFF3E9
:108550006F8FBDE72046FFF746FE00F0B5FD002017
:108560008DE72DE9F84390B10F4616461C460546A7
:10857000B1B1022C20D1EB6B012B1DD04FF0500379
:1085800083F31188BFF36F8FBFF34F8FFEE74FF078
:10859000500383F31188BFF36F8FBFF34F8FFEE754
:1085A000036C002BE5D04FF0500383F31188BFF329
:1085B0006F8FBFF34F8FFEE7FFF762FCEFF3118978
:1085C0004FF0500383F31188BFF36F8FBFF34F8FCA
:1085D000AA6BEB6B9A4206D3022C04D0002089F3DD
:1085E0001188BDE8F88395F845804FFA88F822464F
:1085F00039462846FFF7AAFDB8F1FF3F06D008F13B
:1086000001035BB285F845300120E8E76B6A0BB9DE
:108610000120E4E705F1240000F076FE18B126B150
:1086200001203060DBE70120D9E70120D7E768B1FE
:1086300070B50C460546036C8BB14FF0500383F3C5
:108640001188BFF36F8FBFF34F8FFEE74FF05003DA
:1086500083F31188BFF36F8FBFF34F8FFEE703687B
:10866000EBB1FFF70DFCEFF311864FF0500383F3EE
:108670001188BFF36F8FBFF34F8FAA6BEB6B9342E1
:1086800026D995F845305BB20132AA63B3F1FF3FBA
:1086900011D001335BB285F84530012019E0436801
:1086A000002BDED04FF0500383F31188BFF36F8FA0
:1086B000BFF34F8FFEE76B6A0BB9012009E005F1AC
:1086C000240000F021FE38B144B10120206000E018
:1086D000002086F3118870BD0120FAE70120F8E739
:1086E000F0B585B0019290B10F460446C1B100F0DB
:1086F000A5FE064600BB019B002B5ED04FF0500349
:1087000083F31188BFF36F8FBFF34F8FFEE74FF0F6
:10871000500383F31188BFF36F8FBFF34F8FFEE7D2
:10872000036C002BE3D04FF0500383F31188BFF3A9
:108730006F8FBFF34F8FFEE700263EE0394620469D
:10874000FFF73FFD013DA563236923B9FFF794FAC5
:10875000012005B0F0BD04F1100000F0D5FD0028A7
:10876000F4D04FF0E0234FF08052C3F8042DBFF354
:108770004F8FBFF36F8FE9E7FFF77EFA0020E8E73E
:1087800002A800F007FE012621E0002384F844300F
:1087900029E0002384F845302BE02046FFF723FD35
:1087A00000F092FC09E02046FFF71DFD00F08CFC74
:1087B0002046FFF7BEFC00283FD1FFF73BFAA56B30
:1087C000002DBBD1019B002BD6D0002ED8D0FFF7B7
:1087D00053FA00F0DFFBFFF72DFA94F844305BB258
:1087E000B3F1FF3FD1D094F845305BB2B3F1FF3F16
:1087F000CFD0FFF741FA01A902A800F0D7FD002869
:10880000D1D12046FFF795FC0028C6D0019904F18C
:10881000240000F045FD2046FFF7E5FC00F054FC85
:108820000028CAD14FF0E0234FF08052C3F8042D46
:10883000BFF34F8FBFF36F8FBFE7002089E770B59D
:1088400084B0019158B10446036C8BB14FF05003D2
:1088500083F31188BFF36F8FBFF34F8FFEE74FF0A5
:10886000500383F31188BFF36F8FBFF34F8FFEE781
:1088700000F0E4FD054650B9019B5BB14FF0500399
:1088800083F31188BFF36F8FBFF34F8FFEE700268E
:10889000354655E0064653E0013BA36323683BB1F0
:1088A00023694BB9FFF7E8F90126304604B070BDE3
:1088B00000F0B8FE6060F3E704F1100000F024FD62
:1088C0000028EFD04FF0E0234FF08052C3F8042D82
:1088D000BFF34F8FBFF36F8FE4E746B14FF0500304
:1088E00083F31188BFF36F8FBFF34F8FFEE7FFF75E
:1088F000C3F9DAE702A800F04DFD01252AE00023C4
:1089000084F8443032E0002384F8453034E0FFF747
:1089100091F9606800F0A2FD0646FFF7ADF93BE073
:108920002046FFF760FC00F0CFFB09E02046FFF790
:108930005AFC00F0C9FB2046FFF7FBFB002842D1A0
:10894000FFF778F9A36B002BA6D1019B002BC4D0B5
:10895000002DCFD0FFF790F900F01CFBFFF76AF96C
:1089600094F844305BB2B3F1FF3FC8D094F845307F
:108970005BB2B3F1FF3FC6D0FFF77EF901A902A8B1
:1089800000F014FD0028D1D12046FFF7D2FB0028CB
:10899000C6D02368002BBAD0019904F1240000F05E
:1089A0007FFC2046FFF71FFC00F08EFB0028C7D19C
:1089B0004FF0E0234FF08052C3F8042DBFF34F8FE8
:1089C000BFF36F8FBCE70EB900266EE7FFF732F9F1
:1089D0002046FFF797FB0146606800F0D3FDFFF7E4
:1089E0004BF9F1E70023072B0CD8074A52F8332044
:1089F0000AB10133F7E7044A42F8331002EBC3032C
:108A000058607047704700BF702C002070B5044656
:108A10000D461646FFF70EF994F844305BB2B3F1F9
:108A2000FF3F0DD094F845305BB2B3F1FF3F0BD060
:108A3000FFF722F9A36B5BB12046FFF7D4FB70BDB3
:108A4000002384F84430EDE7002384F84530EFE755
:108A50003246294604F1240000F03AFCECE700001D
:108A6000084B1B681B6823B9074B4FF0FF321A6095
:108A70007047044B1B68DB68DB685A68024B1A605E
:108A8000704700BFB42C0020603100202DE9F04772
:108A900080460D4617469946089EDDF824A00A9C9C
:108AA0009200A521206B07F0C1F8236B07F18042EB
:108AB000013A03EB820727F007074FF0000CBCF1E7
:108AC0000F0F0BD815F80C2004EB0C0383F834209F
:108AD00015F80C3013B10CF1010CF0E7002384F809
:108AE0004330372E00D93726E662E6640025256537
:108AF000201DFEF7FAFF04F11800FEF7F6FF2461CF
:108B0000C6F13806A6616462656584F858504A4625
:108B100041463846FFF762F82060BAF1000F01D0F5
:108B2000CAF80040BDE8F08738B5002407E004EB40
:108B3000840293000E481844FEF7CCFF0134372C12
:108B4000F5D90C4D2846FEF7C5FF0B4C2046FEF725
:108B5000C1FF0A48FEF7BEFF0948FEF7BBFF094800
:108B6000FEF7B8FF084B1D60084B1C6038BD00BF06
:108B7000BC2C002034310020483100206831002016
:108B80009431002080310020B42C0020B82C00202B
:108B900010B50446FFF74EF8224A136801331360FC
:108BA000214B1B685BB1214B1B686BB91E4B1B68CB
:108BB000DA6AE36A9A4207D81B4B1C6004E01A4B3E
:108BC0001C601368012B29D0194A13680133136004
:108BD0006364E06A174B1B68984201D9154B186013
:108BE00000EB8000211D144B03EB8000FEF780FF9B
:108BF000FFF742F80D4B1B687BB10B4B1B68DA6A21
:108C0000E36A9A4209D24FF0E0234FF08052C3F852
:108C1000042DBFF34F8FBFF36F8F10BDFFF784FF9D
:108C2000D2E700BF1C310020B02C00207C31002096
:108C30002C31002030310020BC2C002010B504461F
:108C400090F8593063B1012B11D0022B0ED04FF0A8
:108C5000500383F31188BFF36F8FBFF34F8FFEE78D
:108C6000006BFFF717FA2046FFF714FA10BDFFF765
:108C700011FAFBE70F4B1B68D3B110B5FEF7DAFF13
:108C80000D4BDB68DC68201DFEF756FF0B4A1368AE
:108C9000013B1360074A1368013B1360FEF7ECFFCA
:108CA0002046FFF7CBFF034B1B68002BE6D110BD1E
:108CB000704700BF20310020943100201C3100207B
:108CC00008B5FFF7D7FF074B1B68012BF9D94FF009
:108CD000E0234FF08052C3F8042DBFF34F8FBFF352
:108CE0006F8FEEE7BC2C002070B504460D46174B85
:108CF0001E68174B18680430FEF71EFFB4F1FF3FE3
:108D00000DD03444124B1B685C60A64210D9114B45
:108D100018680F4B19680431FEF7F5FE70BD002D81
:108D2000EFD00B4B196804310B48FEF7E1FEF5E775
:108D30000A4B1868064B19680431FEF7E4FE084B2D
:108D40001B68A342EAD9064B1C60E7E7A831002064
:108D5000B02C0020B82C002080310020B42C002042
:108D60006031002030B587B00B9C7CB10C9DB5B153
:108D70005C250495049D5C2D1AD04FF0500383F3BD
:108D80001188BFF36F8FBFF34F8FFEE74FF0500393
:108D900083F31188BFF36F8FBFF34F8FFEE74FF060
:108DA000500383F31188BFF36F8FBFF34F8FFEE73C
:108DB0000C9D2C63022485F85940002403940295ED
:108DC00005AC01940A9C0094FFF760FE0C98FFF735
:108DD000DFFE059807B030BD2DE9F04385B00746AA
:108DE000884614461E469000FFF7DCF800B3814623
:108DF0005C20FFF7D7F80546B0B1C0F83090E5B178
:108E0000002385F85930039302950D9B01930C9B29
:108E100000933346224641463846FFF737FE284640
:108E2000FFF7B6FE012005E04846FFF733F9E6E715
:108E30004FF0FF3005B0BDE8F0834FF0FF30F9E7A9
:108E400038B50446FEF7F6FE24B3251D2846FEF786
:108E500073FEA36A1BB104F11800FEF76DFE1F4AF2
:108E60001368013313601E4B1B68A34215D01D4AC3
:108E70001368013B13602046FFF7E0FEFFF7F0FDAB
:108E8000FEF7FAFE184B1B681BB1154B1B68A3427B
:108E90000CD038BD124B1C68D7E729461348FEF7A3
:108EA00027FE134A136801331360E9E7114B1B686F
:108EB00043B14FF0500383F31188BFF36F8FBFF3BB
:108EC0004F8FFEE74FF0E0234FF08052C3F8042DA0
:108ED000BFF34F8FBFF36F8FDBE700BF2C31002054
:108EE000B02C00201C3100207C3100209431002067
:108EF000203100202831002010B588B000240594CE
:108F0000069407AA06A905A8FEF7CCFD059B0293C7
:108F1000069B019300942346079A18491848FFF7C7
:108F200021FF184B186040B100F0F6FB012806D075
:108F3000B0F1FF3F18D008B010BD0020F6E74FF0A9
:108F4000500383F31188BFF36F8FBFF34F8F0E4B26
:108F50004FF0FF321A600D4B01221A600C4B0022B9
:108F60001A60FEF701FFE6E74FF0500383F3118824
:108F7000BFF36F8FBFF34F8FFEE700BFF4FD000814
:108F8000C18C00085C310020603100207C31002061
:108F9000A8310020024A136801331360704700BFF4
:108FA00028310020014B1868704700BFA83100200D
:108FB000F8B53A4B1B68002B64D1394B1D6801355D
:108FC0001D60C5B9374B1B681B6843B14FF0500398
:108FD00083F31188BFF36F8FBFF34F8FFEE7314AE2
:108FE0001168314B186810601960304A13680133FA
:108FF0001360FFF735FD2E4B1B68AB4238D90027B5
:109000002C4B1B68DB6A03EB83039A002A4B9B58AB
:10901000012B3CD901273AE00127224B1B681B6832
:1090200043B3204B1B68DB68DC6863689D4226D332
:10903000261D3046FEF780FDA36A1BB104F118001F
:10904000FEF77AFDE36A1D4A1268934201D91B4A72
:10905000136003EB83039A00314617481044FEF770
:1090600047FDE26A134B1B68DB6A9A42D4D2D4E70D
:109070000027D2E70E4B4FF0FF321A60C0E70C4AD0
:109080001360BDE70E4A13680133136000270D4BD0
:109090001B6803B101273846F8BD00BF2831002006
:1090A000A8310020B42C0020B82C0020643100200E
:1090B00060310020B02C0020BC2C0020303100207A
:1090C00024310020AC31002038B5354B1B6843B942
:1090D0004FF0500383F31188BFF36F8FBFF34F8FAF
:1090E000FEE7FEF7A7FD2E4B1A68013A1A601B68CF
:1090F000002B4FD12B4B1B680BB900244BE00024F5
:10910000294B1B681BB3284BDB68DC6804F1180093
:10911000FEF712FD251D2846FEF70EFDE06A234BE3
:109120001B68984201D9214B186000EB800029464A
:109130001F4B03EB8000FEF7DBFCE26A1D4B1B6854
:10914000DB6A9A42DCD31C4B01221A60D8E70CB1CF
:10915000FFF786FC194B1C6884B9174B1C68D4B107
:109160004FF0E0234FF08052C3F8042DBFF34F8F30
:10917000BFF36F8F01240EE0013C07D0FFF718FF0B
:109180000028F9D00C4B01221A60F5E70B4B0022A6
:109190001A60E2E70024FEF76FFD204638BD00BFED
:1091A000283100201C31002068310020303100209F
:1091B000BC2C0020B02C0020AC3100202431002039
:1091C00010B5A8B10446104B1B6843B14FF05003D3
:1091D00083F31188BFF36F8FBFF34F8FFEE7FFF765
:1091E000D9FE00212046FFF77FFDFFF76DFF48B94C
:1091F0004FF0E0234FF08052C3F8042DBFF34F8FA0
:10920000BFF36F8F10BD00BF283100201F4B1B68BC
:109210001BB11F4B01221A6070471D4B00221A60C0
:109220001C4B1B6803EB83018A001B498A585AB9FF
:109230000BB1013BF6E74FF0500383F31188BFF306
:109240006F8FBFF34F8FFEE703EB830082000A446A
:1092500050684068506003EB830C4FEA8C02083280
:10926000114488420BD003EB830291000A4A0A445E
:109270005268D168094A1160064A13607047406815
:1092800062469100044A0A445060ECE7283100200D
:10929000AC31002030310020BC2C0020B02C00204C
:1092A00058B110B50C46094A11681831FEF72BFC6D
:1092B00001212046FFF718FD10BD4FF0500383F346
:1092C0001188BFF36F8FBFF34F8FFEE7B02C0020E4
:1092D00038B570B10D4614460A4A11681831FEF7C8
:1092E00007FC0CB14FF0FF3521462846FFF7FCFC88
:1092F00038BD4FF0500383F31188BFF36F8FBFF376
:109300004F8FFEE7B02C002038B5C368DC6824B36B
:1093100004F118052846FEF70FFC184B1B682BBB01
:10932000251D2846FEF708FCE06A154B1B6898428D
:1093300001D9134B186000EB80002946114B03EB59
:109340008000FEF7D5FBE26A0F4B1B68DB6A9A428E
:1093500011D901200D4B186038BD4FF0500383F335
:109360001188BFF36F8FBFF34F8FFEE72946084880
:10937000FEF7BEFBE7E70020EEE700BF2831002044
:1093800030310020BC2C0020B02C0020AC3100205B
:1093900068310020034B1B680360034B1B6843606C
:1093A000704700BF64310020A8310020F8B5C8B173
:1093B0000C460546F9B1FEF73DFC1B4B19686B687E
:1093C000C81A2268B2F1FF3F26D0184E36682F68BF
:1093D000B74201D08B4224D9824215D800232360A2
:1093E00001241AE04FF0500383F31188BFF36F8F0D
:1093F000BFF34F8FFEE74FF0500383F31188BFF3A5
:109400006F8FBFF34F8FFEE75B1A1344236028462C
:10941000FFF7C0FF002400E00024FEF72DFC2046EB
:10942000F8BD0124F9E700BFA83100206431002015
:10943000014B01221A607047AC310020054B1B68BC
:1094400033B1054B1B680BB10020704702207047F9
:10945000012070477C3100202831002000283FD0B7
:1094600038B50446C36A204A1268D26A93422FD2A2
:109470008269002A05DB1C4A1268D26AC2F13802EE
:109480008261616903EB8303184A02EB830399420B
:1094900005D0154B1B68DB6AE362012038BD251D32
:1094A0002846FEF749FB104B1B68D86AE062104B58
:1094B0001B68984209D800EB800029460B4B03EB50
:1094C0008000FEF715FB0120E8E7094B1860F2E782
:1094D000C26C054B1B68DB6A9A4203D30020DDE7B0
:1094E000002070470120D9E7B02C0020BC2C0020C0
:1094F0003031002000283BD038B504461E4B1B6895
:10950000834208D04FF0500383F31188BFF36F8F6D
:10951000BFF34F8FFEE7036D43B94FF0500383F362
:109520001188BFF36F8FBFF34F8FFEE7013B0365D9
:10953000C16AC26C91421DD00BB1002038BD051D1F
:109540002846FEF7F9FAE06CE062C0F13803A36147
:109550000A4B1B68984201D9084B186000EB800049
:109560002946074B03EB8000FEF7C2FA0120E5E72E
:10957000002070470020E1E7B02C002030310020AF
:10958000BC2C0020002846D038B50446036D43B9F2
:109590004FF0500383F31188BFF36F8FBFF34F8FEA
:1095A000FEE7C26C8A4200D20A46E16A914201D0CB
:1095B000012B00D038BD184B1B68A34222D0E262B9
:1095C000A369002B02DBC2F13802A261626901EBE0
:1095D0008101124B03EB81018A42EBD1251D284604
:1095E000FEF7AAFAE06A0E4B1B68984201D90C4BB1
:1095F000186000EB80002946084B03EB8000FEF763
:1096000077FAD7E74FF0500383F31188BFF36F8FDA
:10961000BFF34F8FFEE77047B02C0020BC2C00201A
:1096200030310020054B1B6823B1044B1A68136DC1
:1096300001331365014B1868704700BFB02C002040
:10964000064B1A681368B3FA83F35B09036013B916
:10965000D368186870470020704700BFB031002001
:1096600008B54160006191420CD8D21A83699A42D0
:1096700001D3012008BD011D094B1868FEF743FA0C
:109680000020F7E79A4201D2994206D2011D054B0C
:109690001868FEF738FA0020ECE70120EAE700BF7F
:1096A000B4310020B031002030B583B0FEF7C2FAEB
:1096B000114B1B681BB1FEF7DFFA03B030BD0F4D35
:1096C0002846FEF707FA0E4C2046FEF703FA0D4B2C
:1096D0001D600D4B1C60002300930C4B0C4A1021A5
:1096E0000A20FEF70AFE044B18600028E3D009495F
:1096F000FFF778F9DFE700BFD432002058320020AE
:109700006C320020B0310020B431002084320020BF
:10971000B8310020FCFD000810B588B0FFF7C4FF89
:10972000124B1B68CBB100240594069407AA06A926
:1097300005A8FEF7C3F9059B0293069B019302233C
:1097400000932346079A0A490A48FFF70BFB0A4B86
:10975000186010B1012008B010BD4FF0500383F322
:109760001188BFF36F8FBFF34F8FFEE7D432002015
:1097700004FE0008599A0008D8320020B8B19C466F
:1097800003461848006858B300B585B000910192AF
:10979000029305291CDCFFF751FE022810D000239C
:1097A0001A4669460F480068FEF717FE15E04FF0AD
:1097B000500383F31188BFF36F8FBFF34F8FFEE722
:1097C0000023069A694607480068FEF706FE04E093
:1097D000002362466946FEF7C4FE05B05DF804FB4F
:1097E00000207047D432002070B582B01A4B1B683D
:1097F0001A6852B3DB681E68DC68251D2846FEF730
:109800009BF9636A20469847E369012BEED1A3696F
:1098100033449E4207D26360246129460E4B186888
:10982000FEF771F9E2E7002100910B46324620462F
:10983000FFF7A4FF0028D9D14FF0500383F311881C
:10984000BFF36F8FBFF34F8FFEE7044A10680249E2
:109850000860136002B070BDB0310020B431002048
:1098600038B50546FFF79EFB0446074B1B6883424D
:1098700005D800232B60044B1C60204638BDFFF741
:10988000B3FF01232B60F6E78032002070B582B071
:1098900006460D4614490968C968CC68201DFEF7C4
:1098A0004BF9E169012904D0636A2046984702B068
:1098B00070BDA16933462A4631442046FFF7D0FEE9
:1098C0000028F1D0002100910B4632462046FFF7D8
:1098D00055FF0028E8D14FF0500383F31188BFF300
:1098E0006F8FBFF34F8FFEE7B031002070B582B0AD
:1098F00006460C46FFF74EFB01A8FFF7B1FF019BA0
:109900002BBB05460CB9B0421AD22CB1124B1B68C6
:109910001C68B4FA84F464092246711B0F4B186862
:10992000FFF774F8FFF7D0FB98B94FF0E0234FF042
:109930008052C3F8042DBFF34F8FBFF36F8F08E041
:10994000FFF7C2FB29463046FFF7A0FF01E0FFF713
:10995000BBFB02B070BD00BFB4310020D432002088
:1099600010B588B002E0049B002B0FDA002204A996
:10997000384B1868FEF7B4FE002869D0049B002B12
:10998000F1DA07990698059B9847ECE7069C63690E
:1099900013B1201DFEF7D0F803A8FFF761FF049B69
:1099A000092BE3D801A252F823F000BFD599000893
:1099B000D5990008D59900086D9900081B9A0008F0
:1099C000419A0008D5990008D59900086D990008BA
:1099D0001B9A0008059BA169024619442046FFF71F
:1099E0003FFE0028C2D0636A20469847E369012BF6
:1099F000BCD1A269002100910B4605980244204683
:109A0000FFF7BCFE0028B1D14FF0500383F311885B
:109A1000BFF36F8FBFF34F8FFEE70599A16131B19F
:109A20000346024601442046FFF71AFE9EE74FF028
:109A3000500383F31188BFF36F8FBFF34F8FFEE79F
:109A400094F82C30002B91D12046FEF723FB8DE7B4
:109A500008B010BDD432002000B583B001A8FFF7D4
:109A6000EFFD0199FFF742FFFFF77AFFF6E70000ED
:109A700008B5134B984211D003F5A053984216D065
:109A8000A3F5C053984200D008BD40F2093000F061
:109A9000B7FD40F2093000F0C1FDF5E740F20A30B1
:109AA00000F0AEFD40F20A3000F0B8FDECE740F205
:109AB0000F3000F0A5FD40F20F3000F0AFFDE3E7FE
:109AC00000280140836813F0010F03D1836843F03D
:109AD00001038360704700F10803826842F00802C6
:109AE00082601A6812F0080FFBD1826842F004020B
:109AF00082601A6812F0040FFBD17047836843F448
:109B00008073836070470000064BD3F8041421F47F
:109B10007021C3F80414D3F804240243C3F80424C6
:109B2000704700BF00200140AAB111F4807F03D02C
:109B3000436843F48073436011F4806F03D043683B
:109B400043F48063436011F0020F19D0836843F03F
:109B500002038360704711F4807F03D0436823F4CD
:109B60008073436011F4806F03D0436823F48063F3
:109B7000436011F0020F03D0836823F00203836077
:109B8000704721B1836843F4006383607047836842
:109B900023F4006383607047012902D002290CD0AE
:109BA0007047C36A23F47003C362C36A013A1205A3
:109BB00002F470021A43C2627047836B23F44013AD
:109BC0008363836B013A120502F440121A438263E5
:109BD000704710B405291FD8446B01EB81014FF089
:109BE0001F0C0CFA01FC24EA0C0C02FA01F141EA08
:109BF0000C014163092A31D8016902EB42024FF09E
:109C0000070C0CFA02FC21EA0C0103FA02F20A43E7
:109C100002615DF8044B70470B290ED8046B01EB11
:109C200081011E394FF01F0C0CFA01FC24EA0C04D0
:109C300002FA01F121430163DCE70F29DAD8C46A93
:109C400001EB81013C394FF01F0C0CFA01FC24EAB6
:109C50000C0402FA01F12143C162CBE7112AD8D8E2
:109C6000C16802EB42021E3A0724944021EA040133
:109C700093400B43C360CCE772B111F0010F03D0E6
:109C8000836843F48013836011F0020F12D083685D
:109C900043F400438360704711F0010F03D08368E1
:109CA00023F48013836011F0020F03D0836823F440
:109CB000004383607047012902D0022908D0704711
:109CC000836823F46023836083681A43826070474B
:109CD000836823F4E043836083681A43826070479B
:109CE00011F0010F03D0836843F48003836011F007
:109CF000020F03D0836843F40013836070470000B1
:109D0000054B984201D001207047042901D8012059
:109D100070470020704700BF0004024038B5054678
:109D20000C46FFF7EDFF00B9FEE7A10004EB840449
:109D300005EB84039A6822F001029A6000229A607F
:109D4000DA601A615A616B680F228A4013436B60B4
:109D500038BD70B506460C461546FFF7D1FF00B971
:109D6000FEE704EB840106EB81032A681A61AA6806
:109D70005A612A8ADA609A6822F47C526968E86833
:109D8000014368690143114399602A7E012A11D079
:109D90009A6822F040029A606A7E012A0FD09A687F
:109DA00022F080029A60AA7E72B99A6822F01002AC
:109DB0009A6070BD9A6842F040029A60ECE79A6837
:109DC00042F080029A60EEE79A6842F010029A60D0
:109DD000EFE738B504460D46FFF792FF00B9FEE7FE
:109DE00005EB850104EB8100836843F02003836069
:109DF00038BD38B504460D46FFF782FF00B9FEE7CF
:109E000005EB850104EB8100836823F480438360C4
:109E100038BD38B504460D46FFF772FF00B9FEE7BE
:109E200005EB850104EB8100836843F00103836047
:109E300038BD000010B42D4BD3F800446FEA000C7D
:109E400024EA0004C3F80044D3F8044424EA0004DC
:109E5000C3F80444D3F8084424EA0004C3F80844CF
:109E6000D3F80C4424EA0004C3F80C4449B1012996
:109E70000ED0012A20D0022A2BD082B15DF8044BEB
:109E800070471A49D1F800340343C1F80034F0E7B1
:109E90001649D1F804340343C1F80434E9E7134BFD
:109EA000D3F808241043C3F80804D3F80C240CEAB0
:109EB0000202C3F80C24E1E70C4AD2F808340CEA99
:109EC0000303C2F80834D2F80C341843C2F80C0467
:109ED000D4E7064BD3F808240243C3F80824D3F888
:109EE0000C241043C3F80C04C8E700BF0000014075
:109EF000074BD3F81424D3F800340340024202D0B5
:109F00001BB900207047002070470120704700BF38
:109F100000000140014BC3F81404704700000140E9
:109F20000E4B1B6913F0800F05D00C4B0C4A5A6086
:109F300002F188325A600B4BB3F8E030B3F5007F82
:109F40000AD9064B1B6D13F0800F05D0034B044A52
:109F50005A6402F188325A64704700BF0020024000
:109F60002301674500F7FF1F074A136943F0800389
:109F70001361064BB3F8E030B3F5007F03D9136DDE
:109F800043F08003136570470020024000F7FF1F75
:109F90000B4BDB6813F0010F0BD1094BDB6813F09F
:109FA000100F08D1064BDB6813F0040F05D1002019
:109FB000704701207047032070470220704700BFA0
:109FC000002002400B4BDB6C13F0010F0BD1094B4F
:109FD000DB6C13F0100F08D1064BDB6C13F0040F91
:109FE00005D10020704701207047032070470220F0
:109FF000704700BF0020024010B50446FFF7C8FFBD
:10A00000013C012801D1002CF8D1012800D010BD5D
:10A010000420FCE710B50446FFF7D4FF013C0128FB
:10A0200001D1002CF8D1012800D010BD0420FCE79C
:10A0300038B504462A4BB3F8E030B3F5007F37D982
:10A04000284B984216D22848FFF7D6FF00B138BDFA
:10A05000264D2B6943F002032B616C612B6943F0A1
:10A0600040032B612048FFF7C7FF2B6923F0020351
:10A070002B61ECE71C48FFF7CDFF0028E7D11B4B15
:10A080001A6D42F002021A655C65DB6913F0020F7B
:10A0900001D0164B5C61154C236D43F040032365E2
:10A0A0001148FFF7B7FF236D23F002032365CEE7C6
:10A0B0000D48FFF7A1FF0028C9D10C4D2B6943F0D3
:10A0C00002032B616C612B6943F040032B6106484E
:10A0D000FFF792FF2B6923F002032B61B7E700BF64
:10A0E00000F7FF1FFFFF07080000FF0F00200240DE
:10A0F00070B505460C46244BB3F8E030B3F5007F4D
:10A100002DD9224B984215D22148FFF775FF0346FF
:10A1100008B1184670BD1F4E336943F00103336127
:10A120002C601B48FFF768FF0346326922F00102EA
:10A130003261EEE71648FFF76DFF03460028E8D1CD
:10A14000144E336D43F0010333652C601048FFF764
:10A1500061FF0346326D22F001023265D9E70C48F7
:10A16000FFF74AFF03460028D3D10A4E336943F074
:10A17000010333612C600648FFF73EFF0346326956
:10A1800022F001023261C4E700F7FF1FFFFF07085A
:10A190000000FF0F0020024070B501F00F0E11F01B
:10A1A000100F03D0042A03D04EEA020E002209E069
:10A1B0004EF0030EC26B1A43C263F7E744610560B9
:10A1C000013292B2072A14D8012494401C40F7D0DF
:10A1D000066895004FF00F0C0CFA05FC26EA0C06F9
:10A1E0000EFA05F535432829E8D04829E7D104615E
:10A1F000E5E7082203E044614560013292B20F2A8C
:10A200001AD84FF0010C0CFA02FC1CEA0304F4D03B
:10A210004568A2F1080C4FEA8C0C0F2606FA0CF6E2
:10A2200025EA06050EFA0CFC4CEA05052829E2D0C1
:10A230004829E1D10461DFE770BD016170474161E8
:10A24000704783680B4201D001207047002070479F
:10A2500010B5002816DB1C4B5B68C0F303421FFAE5
:10A2600080FE00F4401CBCF5401F0ED010F4801F8F
:10A270001DD04FF0030C0CFA02F223EA020343F064
:10A28000E06309E0104BDB69E7E723F0E0630E4C85
:10A29000626822F0E062626021B1420D12010EFAA2
:10A2A00002F2134300280BDB074A536010BD420D36
:10A2B00012010EFA02F223EA020343F0E063EBE735
:10A2C000014AD361F2E700BF0000014010B401F081
:10A2D00003039B000F229A4003290CD818498C686D
:10A2E00024EA02028A608A6800FA03F313438B604F
:10A2F0005DF8044B704707290AD81149CC6824EA55
:10A300000202CA60CA6800FA03F31343CB60EFE7A6
:10A310000B290AD80A490C6924EA02020A610A696F
:10A3200000FA03F313430B61E2E705494C6924EAA1
:10A3300002024A614A6900FA03F313434B61D7E70B
:10A340000000014001B9FEE770B5044616460D460F
:10A35000022000F0A1F9404BA3FB00239B0C3F4AD5
:10A36000904219D21A46616821F07F011143616061
:10A370003B498D4219D801333B2B0FD93C23236233
:10A380006D00B0FBF5F0032800D80420E369C0F3AA
:10A390000B001843E06170BD3C22E4E7022B02D8B9
:10A3A00002232362ECE72362EAE72E4B9D422AD880
:10A3B0004FF4967302FB03F32B4AA2FB03239B0982
:10A3C00001332362A6B905EB4505B0FBF5F0E3695F
:10A3D00023F48043E361C0F30B030BB940F00100A9
:10A3E000E36943F40043E361E3691843E061D2E7C2
:10A3F00005EB850505EB8505B0FBF5F0E36943F456
:10A400008043E361E7E7C2EB0213DB00164AA2FBDD
:10A4100003239B090133236296B905EB4505B0FB85
:10A42000F5F0E36923F48043E361E36943F4004317
:10A43000E361E3691843E0610123C4F89030AAE7BF
:10A4400005EB850505EB8505B0FBF5F0E36943F405
:10A450008043E361E9E700BF83DE1B43008793038A
:10A46000A0860100801A0600D34D621010B4046863
:10A4700024F0020C4CEA01010160C3F30903134309
:10A4800083605DF8044B7047012904D0036823F40E
:10A49000806303607047036843F480630360704720
:10A4A00012F1020F03D041F001010161704721F068
:10A4B0000101FAE7036843F0010303607047036892
:10A4C00043F4807303607047036843F400730360D0
:10A4D0007047016170470069C0B270478B091B5813
:10A4E00001F01F0123FA01F111F0010F01D0012049
:10A4F00070470020704740F2015399420DD04FEA57
:10A50000911C5CF8003001F01F01012202FA01F1F8
:10A5100023EA01014CF800107047436983697047D2
:10A5200040F0BF6040F40030014BD860704700BF7E
:10A5300000ED00E070B505460E461446274BDB687B
:10A5400003F4E063B3F5E06F25D0244BDB6803F43C
:10A55000E063B3F5C06F38D0204BDB6803F4E063F1
:10A56000B3F5A06F34D01D4BDB6803F4E063B3F5A3
:10A57000806F30D0194BDB6803F4E063B3F5407FA4
:10A5800002D10023042108E04FF4A060FFF7C8FFC8
:10A590000223194601E004230021C1F104018E4089
:10A5A000C3F104030F2222FA03F31C4034432401B5
:10A5B000E4B20B4A531983F8004305F01F016D09FB
:10A5C00001238B4042F8253070BD03230121E4E7CD
:10A5D00002231946E1E701230321DEE700ED00E055
:10A5E00000E100E0830903F1804303F504331A68B6
:10A5F00000F01F00012101FA00F0104318607047BD
:10A60000830903F1804303F504331A6800F01F0047
:10A61000012101FA00F0104318607047830903F12B
:10A62000804303F504331A6800F01F00012101FA8A
:10A6300000F022EA0000186070470000134A5368D7
:10A6400023F0805323F44043D26A22F000520B28B7
:10A6500009D8DFE800F006060606080C080C1313FC
:10A66000131343EA803309494B60CA6270470849B3
:10A6700001EA8030034343F08053F4E7054901EADF
:10A680008030034342F00052EDE700BF001002406B
:10A6900000C0FEFF00C0FCFF10B588B084463B4CF4
:10A6A00094E80F000DF1200E0EE90F0002AB1034FC
:10A6B00094E8030083E803006B4683E80300344B0F
:10A6C0005B68C3F38103022B23D0324830494B68C7
:10A6D000C3F3031320336B4413F8102C20FA02F257
:10A6E0004B68C3F3022320336B4413F8183C22FA5F
:10A6F00003F44B68C3F3C22320336B4413F8203CAC
:10A7000022FA03F3BCF1030F37D8DFE80CF0393835
:10A710003B3D1F4B5B6813F4803F0ED01C4BDB6A44
:10A7200013F0804F07D11B49194B5B6813F4003FAE
:10A7300004D0490802E01849F6E71849144A53685A
:10A74000C3F38343526812F0006F01D043F010034B
:10A750000F4A526812F0804F01D043F020030E2BB5
:10A7600003D8981C01FB00F0B0E7A3F10F022F2AD9
:10A7700001D8581CF6E73F20F4E7002000E010461F
:10A7800008B010BD2046FBE71846F9E7C8FD0008F1
:10A790000010024000127A00006CDC0200093D004B
:10A7A00008B5134B98421AD003F57443984204D06D
:10A7B000A3F57843984209D008BD4FF44370FFF7E2
:10A7C0001FFF4FF44370FFF729FFF5E740F20E40FB
:10A7D000FFF716FF40F20E40FFF720FFECE740F2D4
:10A7E0000F40FFF70DFF40F20F40FFF717FFE3E7C1
:10A7F000003C00400023036043608360C36043610A
:10A80000836103617047026802F441520B681A4386
:10A810004B681A438B681A43CB681A430B691A4377
:10A820004B691A438B6913430360C36923F40063C4
:10A83000C3617047036843F0400303607047C16021
:10A84000704783680B4201D0012070470020704799
:10A8500008B5334B984259D020D8A3F500639842ED
:10A860004BD00BD92F4B98423DD140F20340FFF71C
:10A87000C7FE40F20340FFF7D1FE34E0B0F1804F55
:10A8800032D0A3F5806398422DD140F20140FFF70A
:10A89000B7FE40F20140FFF7C1FE24E0224B984290
:10A8A00019D003F50063984208D140F20D30FFF74C
:10A8B000A7FE40F20D30FFF7B1FE14E0A3F5903390
:10A8C000984210D140F20540FFF79AFE40F2054051
:10A8D000FFF7A4FE07E040F20B30FFF791FE40F2D5
:10A8E0000B30FFF79BFE08BD4FF48060FFF788FE3A
:10A8F0004FF48060FFF792FEF5E740F20240FFF769
:10A900007FFE40F20240FFF789FEECE740F2044090
:10A91000FFF776FE40F20440FFF780FEE3E700BF5A
:10A9200000100040000C0040002C01400023038078
:10A93000438083804FF6FF728260C3800373704749
:10A940000B888362204B984212D0B0F1804F0FD019
:10A95000A3F5943398420BD003F58063984207D057
:10A9600003F58063984203D003F5943398420BD1EA
:10A97000036823F07003036003684A88134303608D
:10A9800003688A88134303608B68C3620F4B984245
:10A990000BD003F58063984207D0036823F440731B
:10A9A00003600368CA8813430360074B984203D0CF
:10A9B00003F50063984201D10B7B0363436943F0C5
:10A9C00001034361704700BF002C014000100040AC
:10A9D000036843F0010303607047036823F0010339
:10A9E00003607047036843F0800303607047C162EF
:10A9F000704741627047406A7047C3680B43C36049
:10AA00007047C3680B4002690A4202D01BB900209C
:10AA100070470020704701207047C94301617047AB
:10AA2000012904D0436C23F4004343647047436C12
:10AA300043F4004343647047032900F2EE80DFE8EB
:10AA400011F0040041008400C600036A23F00103F2
:10AA50000362836923F003038361036A11880B4354
:10AA60000362036A23F002030362036A91880B43C3
:10AA700003626A4B984204D003F50063984240F0A9
:10AA8000CC80036A23F004030362036A51880B43FA
:10AA90000362036A23F008030362036AD1880B434D
:10AAA0000362436823F480734360436811890B4356
:10AAB0004360436823F4007343604368528913433F
:10AAC00043607047036A23F010030362836923F431
:10AAD00040738361036A118843EA01130362036AC6
:10AAE00023F020030362036A918843EA011303629F
:10AAF0004A4B984204D003F50063984240F08D80A1
:10AB0000036A23F040030362036A518843EA011396
:10AB10000362036A23F080030362036AD18843EA75
:10AB200001130362436823F480634360436811891F
:10AB300043EA81034360436823F40063436043684E
:10AB4000528943EA820343607047036A23F48073A7
:10AB50000362C36923F00303C361036A118843EAF4
:10AB600001230362036A23F400730362036A91887A
:10AB700043EA01230362294B984203D003F50063A3
:10AB800098424AD1036A23F480630362036A5188BE
:10AB900043EA01230362036A23F400630362036A46
:10ABA000D18843EA01230362436823F4805343605E
:10ABB0004368118943EA01134360436823F4005357
:10ABC00043604368528943EA021343607047036A53
:10ABD00023F480530362C36923F44073C361036A9F
:10ABE000118843EA01330362036A23F400530362CA
:10ABF000036A918843EA01330362084B984203D009
:10AC000003F50063984208D1436823F4804343600E
:10AC10004368128943EA821343607047002C014065
:10AC2000032924D8DFE801F0020A131B836923F00B
:10AC30007003836183691A4382617047836923F4D7
:10AC4000E0438361836943EA022282617047C369FA
:10AC500023F07003C361C3691A43C2617047C369BB
:10AC600023F4E043C361C36943EA0222C26170472F
:10AC700003290AD8DFE801F002040608426370479E
:10AC800082637047C263704702647047032924D807
:10AC9000DFE801F0020A131B836923F008038361D4
:10ACA00083691A4382617047836923F40063836177
:10ACB000836943EA022282617047C36923F0080373
:10ACC000C361C3691A43C2617047C36923F4006357
:10ACD000C361C36943EA0222C26170470023038053
:10ACE000012242808380C3807047032924D8DFE893
:10ACF00001F0020A131B836923F00C03836183694B
:10AD00001A4382617047836923F4406383618369D6
:10AD100043EA022282617047C36923F00C03C361D6
:10AD2000C3691A43C2617047C36923F44063C361B6
:10AD3000C36943EA0222C261704708B5032929D8D2
:10AD4000DFE801F0022C537A036A23F00103036267
:10AD5000036A23F00A030362036AB2F800C043EAFD
:10AD60000C030362836923F0030383618369B2F8F0
:10AD700002C043EA0C038361836923F0F00383611B
:10AD80008369B2F806C043EA0C138361036A43F097
:10AD9000010303629288FFF7A8FF08BD036A23F04E
:10ADA00010030362036A23F0A0030362036AB2F88C
:10ADB00000C043EA0C130362836923F44073836188
:10ADC0008369B2F802C043EA0C238361836923F4E8
:10ADD000704383618369B2F806C043EA0C33836130
:10ADE000036A43F010030362D4E7036A23F4807319
:10ADF0000362036A23F420630362036AB2F800C0AB
:10AE000043EA0C230362C36923F00303C361C369EC
:10AE1000B2F802C043EA0C03C361C36923F0F00334
:10AE2000C361C369B2F806C043EA0C13C361036A85
:10AE300043F480730362ADE7036A23F48053036233
:10AE4000036A23F400530362036AB2F800C043EAC2
:10AE50000C330362C36923F44073C361C369B2F85E
:10AE600002C043EA0C23C361C36923F47043C36186
:10AE7000C369B2F806C043EA0C33C361036A43F402
:10AE80008053036286E730B4856825F00705856046
:10AE900084680C438460816921F4407121F00301CE
:10AEA0008161816941F4807141F001018161046A2D
:10AEB00024F00A040462046A24F0A0040462016A13
:10AEC00042EA03121143016230BC704708B5204BBF
:10AED00098422AD00FD91F4B98422FD003F56843D0
:10AEE000984207D140F20E30FFF78AFB40F20E3055
:10AEF000FFF794FB08BDA3F5006398420CD003F55F
:10AF000080639842F6D140F21240FFF779FB40F29D
:10AF10001240FFF783FBEDE740F21140FFF770FBB3
:10AF200040F21140FFF77AFBE4E740F21340FFF7ED
:10AF300067FB40F21340FFF771FBDBE740F2144080
:10AF4000FFF75EFB40F21440FFF768FBD2E700BF5B
:10AF5000004C00400050004038B504460D46184BE8
:10AF6000984223D010D9174B984223D003F5684359
:10AF7000984223D10320FFF78FFB00EB5500B0FB75
:10AF8000F5F189B2A16038BDA3F50063984209D0FC
:10AF900003F58063984203D10220FFF77DFBECE7C5
:10AFA0000020EAE70220FFF777FBE6E70220FFF741
:10AFB00073FBE2E70220FFF76FFBDEE70020DCE730
:10AFC000004C004000500040C26822F4C062C260E1
:10AFD000C3680B43C3607047C26822F48052C260EA
:10AFE000C3680B43C3607047026922F44052026198
:10AFF00003690B4303617047C36843F40053C360A4
:10B000007047C36823F008030B43C3607047C368ED
:10B0100023F004030B43C3607047C1F30801416090
:10B0200070474068C0F308007047436923F4807399
:10B030000B4343617047436923F400730B4343613F
:10B0400070478B091B5801F01F0123FA01F111F021
:10B05000010F01D001207047002070474FEA911C7A
:10B060005CF8003001F01F01012202FA01F11943DE
:10B070004CF80010704710B4C1F389131C5801F04C
:10B080001F02012303FA02F222408C0D2058C1F363
:10B09000044103FA01F1084202D02AB9002000E07D
:10B0A00000205DF8044B70470120FAE74FEA915CFD
:10B0B0005CF80030C1F30441012202FA01F123EAF5
:10B0C00001014CF80010704710B54FF402630322E1
:10B0D00004211648FFF760F800220E212820FFF710
:10B0E00029FA00220D211720FFF724FA0B21022054
:10B0F000FFF7ECF805210220FFF7E8F800221146DF
:10B100004FF40060FEF796FE0024094B1C604FF4DC
:10B110000060FEF7FFFE224621462020FEF78AFE51
:10B12000044B1C602020FEF7F5FE10BD001001400E
:10B13000DC320020E0320020014B1860704700BF75
:10B14000E0320020014B1860704700BFDC32002065
:10B1500008B54FF40060FEF7CBFE18B1054B1B6835
:10B1600003B19847002211464FF40060FEF762FEDB
:10B1700008BD00BFDC32002008B52020FEF7B8FE75
:10B1800018B1054B1B6803B19847002211462020D7
:10B19000FEF750FE08BD00BFE032002038B540F297
:10B1A0000360FFF71FFA01211448FFF751F801214E
:10B1B0001348FFF74DF8134C4FF4004303220421CA
:10B1C0002046FEF7E9FF104D0823032204212846FC
:10B1D000FEF7E2FFC023032204212046FEF7DCFF36
:10B1E000C023032204212846FEF7D6FF03231A4674
:10B1F00004212046FEF7D0FF38BD00BF000230001A
:10B200000001180000080140000C0140F0B587B0B3
:10B210004FF4E060FFF7E6F94FF08040FFF718FBCE
:10B220006846FFF783FB0024ADF80040ADF802400C
:10B23000ADF804404FF6FF770297ADF806408DF861
:10B240000C4069464FF08040FFF77AFB04A8FFF7F7
:10B2500045FDADF810400125ADF81250ADF8144091
:10B26000ADF8164004AA21464FF08040FFF765FD77
:10B2700004AA29464FF08040FFF75FFD02231A46DB
:10B2800003214FF08040FFF7FEFD4FF08040FFF7B5
:10B29000A9FB4FF08040FFF79BFB40F20170FFF7E6
:10B2A000A1F9584E3046FFF7D3FA6846FFF73EFB48
:10B2B000ADF80040ADF80240ADF804400297ADF89B
:10B2C00006408DF80C4069463046FFF739FB04A86C
:10B2D000FFF704FDADF81040ADF81250ADF8144082
:10B2E000ADF8164004AA21463046FFF726FD04AA11
:10B2F00029463046FFF721FD02231A460321304636
:10B30000FFF7C1FD3046FFF76DFB3046FFF760FBEE
:10B3100040F20270FFF766F906F580663046FFF7E7
:10B3200097FA6846FFF702FBADF80040ADF802401F
:10B33000ADF804400297ADF806408DF80C40694620
:10B340003046FFF7FDFA04A8FFF7C8FCADF810403F
:10B35000ADF81250ADF81440ADF8164004AA2146DD
:10B360003046FFF7EAFC04AA29463046FFF7E5FC21
:10B3700002231A4603213046FFF785FD3046FFF7CA
:10B3800031FB3046FFF724FB40F20370FFF72AF948
:10B3900006F580663046FFF75BFA6846FFF7C6FAA7
:10B3A000ADF80040ADF80240ADF804400297ADF8AA
:10B3B00006408DF80C4069463046FFF7C1FA04A8F4
:10B3C000FFF78CFCADF81040ADF81250ADF814400A
:10B3D000ADF8164004AA21463046FFF7AEFC04AA99
:10B3E00029463046FFF7A9FC02231A4603213046BE
:10B3F000FFF749FD3046FFF7F5FA3046FFF7E8FA68
:10B4000007B0F0BD0004004008B5FFF7C7FEFFF726
:10B41000FDFE08BD08B501214FF08040FFF7F1FAAD
:10B42000012800D008BD4FF080431B6813F0100FB7
:10B430000AD0084A92F90030013B137001214FF005
:10B440008040FFF7EAFAEDE7024A92F90030013353
:10B450001370F3E7E432002008B501210E48FFF72E
:10B46000D0FA012800D008BD4FF08043D3F8003453
:10B4700013F0100F09D0094A92F90030013B137004
:10B4800001210548FFF7C9FAEDE7044A92F90030B7
:10B4900001331370F4E700BF00040040F8320020CD
:10B4A00008B501210E48FFF7ACFA012800D008BD0D
:10B4B0004FF08043D3F8003813F0100F09D0094A39
:10B4C00092F90030013B137001210548FFF7A5FAFE
:10B4D000EDE7044A92F9003001331370F4E700BF3E
:10B4E000000800400C33002008B501210E48FFF78A
:10B4F00088FA012800D008BD4FF08043D3F8003C03
:10B5000013F0100F09D0094A92F90030013B137073
:10B5100001210548FFF781FAEDE7044A92F900306E
:10B5200001331370F4E700BF000C0040203300200B
:10B53000F0B583B004460139032900F2A780DFE8A3
:10B5400001F0022D547B4FF08040FFF754FA00B217
:10B55000524B988110F1090F01DB00221A70002173
:10B560004FF08040FFF745FA4C4D2E1D96E8030042
:10B5700004F088F885ED040A6F46384604F06CF84C
:10B5800097E8030086E80300A4460FCDACE80F005F
:10B590002B68CCF80030204603B0F0BD4048FFF7E0
:10B5A0002AFA00B23F4B988110F1090F01DB00220B
:10B5B0001A7000213A48FFF71CFA3A4D2E1D96E802
:10B5C000030004F05FF885ED040A6F46384604F086
:10B5D00043F897E8030086E80300A4460FCDACE8E3
:10B5E0000F002B68CCF80030D5E72F48FFF703FA9F
:10B5F00000B22E4B988110F1090F01DB00221A7066
:10B6000000212948FFF7F5F9284D2E1D96E8030083
:10B6100004F038F885ED040A6F46384604F01CF84B
:10B6200097E8030086E80300A4460FCDACE80F00BE
:10B630002B68CCF80030AEE71D48FFF7DCF900B20C
:10B640001C4B988110F1090F01DB00221A700021B8
:10B650001748FFF7CEF9174D2E1D96E8030004F0AA
:10B6600011F885ED040A6F46384603F0F5FF97E8B8
:10B67000030086E80300A646AC46BCE80F00AEE82F
:10B680000F00DCF80030CEF8003084E70546094EA4
:10B690000FCE0FC533682B607DE700BFE43200207A
:10B6A00000040040F8320020000800400C33002065
:10B6B000000C00402033002070B505460C46FEF714
:10B6C0002FFCC5F1006303F58023A34207D3E60AEC
:10B6D000C4F30A0404B101360024204608E0FEF752
:10B6E00043FC00200BE005EBC420FEF7A1FC013475
:10B6F000B44201DA0028F6D0FEF736FC012070BD16
:10B70000F8B500F17843B3F5802F01D30020F8BDE0
:10B7100005460E461746FEF703FC002408E0FEF738
:10B72000E7FC6019635931598B42F8D10434A4B253
:10B73000BC42F6D3FEF718FC0120E8E7002305E041
:10B7400013F800C001F803C001339BB29342F7D352
:10B750007047000010B540F20360FEF743FF40F26F
:10B760001570FEF73FFF0A4C4FF4807303221C2133
:10B770002046FEF711FD4FF4007303221C212046E2
:10B78000FEF70AFD01210220FEF762FD10BD00BF99
:10B79000000C014010B50A4C00220A492046FEF771
:10B7A000D1FD7223002211462046FEF75FFE20469F
:10B7B000FEF780FE01212046FEF766FE10BD00BFA9
:10B7C000005400403057050008B5FFF7C3FFFFF7EE
:10B7D000E1FF08BD70B506460D461446FCF72AFA8F
:10B7E00040F201612548FEF779FE0028F8D1234890
:10B7F000FEF765FE4FF4A0612048FEF76FFE0028BB
:10B80000F8D06FF0010231461C48FEF749FE40F2C5
:10B8100001511A48FEF762FE0028F8D040F20151AB
:10B820001648FEF768FE40F207511448FEF756FE30
:10B830000028F8D029461148FEF74BFE40F2075188
:10B840000E48FEF74BFE0028F8D021460B48FEF7C5
:10B8500040FE40F207510948FEF740FE0028F8D0AC
:10B860000648FEF731FE064BD3F8003413F4007F90
:10B87000F9D1FCF701FA012070BD00BF005400406F
:10B880000050004070B505460E461446FCF7D2F94C
:10B8900040F201613448FEF721FE0028F8D1324819
:10B8A000FEF70DFE4FF4A0612F48FEF717FE0028AB
:10B8B000F8D06FF0010229462B48FEF7F1FD40F267
:10B8C00001512948FEF70AFE0028F8D040F2015144
:10B8D0002548FEF710FE40F207512348FEF7FEFD13
:10B8E0000028F8D031462048FEF7F3FD40F207511A
:10B8F0001D48FEF7F3FD0028F8D01B48FEF7DFFDDA
:10B900004FF4A0611848FEF7E9FD0028F8D00122A5
:10B9100029461548FEF7C4FD40F201511248FEF7D2
:10B92000DDFD0028F8D0104D40F201512846FEF709
:10B93000E2FD00212846FEF7A7FD2846FEF7C4FDDC
:10B9400040F206510848FEF7C9FD0028F8D0064D20
:10B950002846FEF7C0FD207001212846FEF794FD21
:10B96000FCF78AF9012070BD005400402DE9F04138
:10B970000546884617461E46FCF75CF940F2016111
:10B980003F48FEF7ABFD04460028F7D13C48FEF7E0
:10B9900096FD4FF4A0613A48FEF7A0FD0028F8D0CC
:10B9A0006FF0010229463648FEF77AFD40F2015158
:10B9B0003348FEF793FD0028F8D040F2015130489B
:10B9C000FEF799FD40F207512D48FEF787FD00284C
:10B9D000F8D041462A48FEF77CFD40F2075128483E
:10B9E000FEF77CFD0028F8D02548FEF768FD4FF4EF
:10B9F000A0612348FEF772FD0028F8D001222946F5
:10BA00001F48FEF74DFD40F201511D48FEF766FD4F
:10BA10000028F8D040F201511948FEF76CFD0DE006
:10BA200040F206511648FEF759FD0028F8D0651C73
:10BA3000EDB21348FEF74FFD38552C46012E02D9C2
:10BA4000731E9C42ECDB0E4D00212846FEF71CFDC8
:10BA50002846FEF739FD40F206510948FEF73EFD43
:10BA60000028F8D0064D2846FEF735FD385501214F
:10BA70002846FEF709FDFCF7FFF80120BDE8F0813C
:10BA8000005400402DE9F04188B0564C01230322B8
:10BA900000212046FEF780FB0223032200212046DE
:10BAA000FEF77AFB0423032200212046FEF774FBF5
:10BAB0000823032200212046FEF76EFB10230322F9
:10BAC00000212046FEF768FB4FF4A060FEF78AFDD8
:10BAD00004F5704400212046FEF720F9424B019303
:10BAE00000268DF81C60414B039301258DF81D50F5
:10BAF0004FF4806304934FF48078CDF808808DF87C
:10BB00001E60052705974FF40053069301AA31469E
:10BB10002046FEF71EF931462046FEF75AF9314617
:10BB20002046FEF766F931462046FEF772F940F2EC
:10BB30000960FEF757FD0320FEF780FDA4F55C4485
:10BB40002046FDF795FF3046FDF7DEFF2A4602212D
:10BB50002046FDF7E9FF2A4641462046FDF7E4FF6F
:10BB600031462046FEF70DF83A4629462046FEF7B4
:10BB700013F83B460C2231462046FEF72AF83B4696
:10BB80000B2229462046FEF724F83B460A220221D2
:10BB90002046FEF71EF83B460D2203212046FEF705
:10BBA00018F83B460E2204212046FEF712F82A46DA
:10BBB00029462046FEF760F84FF4602229462046C9
:10BBC000FEF779F82046FDF77DFF2046FDF783FF5D
:10BBD0002046FDF793FF29462046FEF781F808B07E
:10BBE000BDE8F081001001404C24014034330020B6
:10BBF00008B5094B1B7833B130B120230322102143
:10BC00000648FEF7C9FA08BD202303220421034891
:10BC1000FEF7C2FAF7E700BF4033002000080140FA
:10BC200008B5094B1B7E33B130B10223032210212A
:10BC30000648FEF7B1FA08BD022303220421034897
:10BC4000FEF7AAFAF7E700BF40330020000C0140DE
:10BC500008B50A4B93F830303BB138B14FF48053FC
:10BC6000032210210648FEF797FA08BD4FF48053CF
:10BC7000032204210248FEF78FFAF6E74033002042
:10BC8000000C014008B5094B93F8483033B130B18E
:10BC90001023032219460648FEF77EFA08BD10233A
:10BCA000032204210248FEF777FAF7E74033002029
:10BCB000000C014008B50A4B93F860303BB138B135
:10BCC0004FF48043032210210648FEF765FA08BDB1
:10BCD0004FF48043032204210248FEF75DFAF6E7A1
:10BCE00040330020000C014008B50A4B93F878302F
:10BCF0003BB138B14FF40063032210210648FEF730
:10BD00004BFA08BD4FF40063032204210248FEF7FA
:10BD100043FAF6E7403300200010014008B5094B14
:10BD200093F8903033B130B120230322102106481C
:10BD3000FEF732FA08BD2023032204210248FEF751
:10BD40002BFAF7E7403300200010014008B50A4BFA
:10BD500093F8A8303BB138B14FF4006303221021AF
:10BD60000648FEF719FA08BD4FF4006303220421C8
:10BD70000248FEF711FAF6E74033002000080140C0
:10BD800008B5094B93F8C03033B130B10123032219
:10BD900010210648FEF700FA08BD01230322042102
:10BDA0000248FEF7F9F9F7E740330020001C014094
:10BDB00008B50A4B93F8D8303BB138B14FF4004383
:10BDC000032210210648FEF7E7F908BD4FF40043AF
:10BDD000032204210248FEF7DFF9F6E74033002092
:10BDE0000008014008B5094B93F8F03033B130B189
:10BDF0000823032210210648FEF7CEF908BD0823C8
:10BE0000032204210248FEF7C7F9F7E74033002078
:10BE1000000C014008B5094B93F8083133B130B13B
:10BE20004023032210210648FEF7B6F908BD40233F
:10BE3000032204210248FEF7AFF9F7E74033002060
:10BE4000000C014008B50A4B93F820313BB138B1E2
:10BE50004FF48063032210210648FEF79DF908BDC8
:10BE60004FF48063032204210248FEF795F9F6E7B8
:10BE7000403300200008014008B5094B93F83831E1
:10BE800033B130B10223032210210648FEF784F9B2
:10BE900008BD0223032204210248FEF77DF9F7E7DB
:10BEA00040330020001C014008B5094B93F8503185
:10BEB00033B130B10223032210210648FEF76CF99A
:10BEC00008BD0223032204210248FEF765F9F7E7C3
:10BED00040330020001C014008B5094B93F868313D
:10BEE00033B130B10123032210210648FEF754F983
:10BEF00008BD0123032204210248FEF74DF9F7E7AC
:10BF000040330020001C014008B5044B1B7803B9E6
:10BF100008BD20210248FEF790F9F9E740330020E0
:10BF20000008014008B5044B1B7E03B908BD02217F
:10BF30000248FEF782F9F9E740330020000C014087
:10BF400008B5054B93F8303003B908BD4FF4805164
:10BF50000248FEF772F9F8E740330020000C014078
:10BF600008B5054B93F8483003B908BD10210348C4
:10BF7000FEF763F9F9E700BF40330020000C0140F1
:10BF800008B5054B93F8603003B908BD4FF4804104
:10BF90000248FEF752F9F8E740330020000C014058
:10BFA00008B5054B93F8783003B908BD4FF400612C
:10BFB0000248FEF742F9F8E7403300200010014044
:10BFC00008B5054B93F8903003B908BD202103480C
:10BFD000FEF733F9F9E700BF4033002000100140BD
:10BFE00008B5054B93F8A83003B908BD4FF40061BC
:10BFF0000248FEF722F9F8E740330020000801402C
:10C0000008B5054B93F8C03003B908BD01210348BA
:10C01000FEF713F9F9E700BF40330020001C014090
:10C0200008B5054B93F8D83003B908BD4FF400416B
:10C030000248FEF702F9F8E740330020000801400B
:10C0400008B5054B93F8F03003B908BD0821034843
:10C05000FEF7F3F8F9E700BF40330020000C014081
:10C0600008B5054B93F8083103B908BD40210348D2
:10C07000FEF7E3F8F9E700BF40330020000C014071
:10C0800008B5054B93F8203103B908BD4FF4806122
:10C090000248FEF7D2F8F8E74033002000080140DC
:10C0A00008B5054B93F8383103B908BD02210348A0
:10C0B000FEF7C3F8F9E700BF40330020001C014041
:10C0C00008B5054B93F8503103B908BD0221034868
:10C0D000FEF7B3F8F9E700BF40330020001C014031
:10C0E00008B5054B93F8683103B908BD0121034831
:10C0F000FEF7A3F8F9E700BF40330020001C014021
:10C1000008B5044B1B7803B908BD20210248FEF78F
:10C1100096F8F9E7403300200008014008B5044BC9
:10C120001B7E03B908BD02210248FEF788F8F9E733
:10C1300040330020000C014008B5054B93F8303027
:10C1400003B908BD4FF480510248FEF778F8F8E7CC
:10C1500040330020000C014008B5054B93F84830EF
:10C1600003B908BD10210348FEF769F8F9E700BFDD
:10C1700040330020000C014008B5054B93F86030B7
:10C1800003B908BD4FF480410248FEF758F8F8E7BC
:10C1900040330020000C014008B5054B93F878307F
:10C1A00003B908BD4FF400610248FEF748F8F8E70C
:10C1B000403300200010014008B5054B93F8903043
:10C1C00003B908BD20210348FEF739F8F9E700BF9D
:10C1D000403300200010014008B5054B93F8A8300B
:10C1E00003B908BD4FF400610248FEF728F8F8E7EC
:10C1F000403300200008014008B5054B93F8C030DB
:10C2000003B908BD01210348FEF719F8F9E700BF9B
:10C2100040330020001C014008B5054B93F8D8308E
:10C2200003B908BD4FF400410248FEF708F8F8E7EB
:10C23000403300200008014008B5054B93F8F0306A
:10C2400003B908BD08210348FDF7F9FFF9E700BF6E
:10C2500040330020000C014008B5054B93F808312D
:10C2600003B908BD40210348FDF7E9FFF9E700BF26
:10C2700040330020000C014008B5054B93F82031F5
:10C2800003B908BD4FF480610248FDF7D8FFF8E715
:10C29000403300200008014008B5054B93F83831C1
:10C2A00003B908BD02210348FDF7C9FFF9E700BF44
:10C2B00040330020001C014008B5054B93F8503175
:10C2C00003B908BD02210348FDF7B9FFF9E700BF34
:10C2D00040330020001C014008B5054B93F868313D
:10C2E00003B908BD01210348FDF7A9FFF9E700BF25
:10C2F00040330020001C014008B5054B1B780BB9EA
:10C30000FF2008BD20210348FDF79BFFF9E700BF90
:10C31000403300200008014008B5054B1B7E0BB9D7
:10C32000FF2008BD02210348FDF78BFFF9E700BF9E
:10C3300040330020000C014008B5064B93F8303024
:10C340000BB9FF2008BD4FF480510348FDF779FF7A
:10C35000F8E700BF40330020000C014008B5054B52
:10C3600093F848300BB9FF2008BD10210248FDF7B3
:10C3700068FFF9E740330020000C014008B5064B88
:10C3800093F860300BB9FF2008BD4FF4804103489B
:10C39000FDF757FFF8E700BF40330020000C0140D5
:10C3A00008B5064B93F878300BB9FF2008BD4FF461
:10C3B00000610348FDF745FFF8E700BF4033002068
:10C3C0000010014008B5054B93F890300BB9FF20E1
:10C3D00008BD20210248FDF734FFF9E74033002073
:10C3E0000010014008B5054B93F8A80000B908BD3E
:10C3F0004FF400610248FDF724FFF8E740330020C6
:10C400000008014008B5054B93F8C0300BB9FF2078
:10C4100008BD01210248FDF714FFF9E74033002071
:10C42000001C014008B5064B93F8D8300BB9FF202B
:10C4300008BD4FF400410348FDF703FFF8E700BFD4
:10C44000403300200008014008B5054B93F8F03058
:10C450000BB9FF2008BD08210248FDF7F2FEF9E7FD
:10C4600040330020000C014008B5054B93F808311B
:10C470000BB9FF2008BD40210248FDF7E2FEF9E7B5
:10C4800040330020000C014008B5064B93F82031E2
:10C490000BB9FF2008BD4FF480610348FDF7D1FEC2
:10C4A000F8E700BF403300200008014008B5054B05
:10C4B00093F838310BB9FF2008BD02210248FDF77F
:10C4C000C0FEF9E740330020001C014008B5054BD1
:10C4D00093F850310BB9FF2008BD02210248FDF747
:10C4E000B0FEF9E740330020001C014008B5054BC1
:10C4F00093F868310BB9FF2008BD01210248FDF710
:10C50000A0FEF9E740330020001C014070B5202355
:10C51000032210218A48FDF73FFE8A4C8A4B636054
:10C520008A4BA3608A4BE3608A4B23618A4B636129
:10C5300001252570894E0223032210213046FDF784
:10C540002BFE874BE361874B2362874B6362874BEC
:10C55000A362874BE36225764FF4805303221021B8
:10C560003046FDF719FE834B6363834BA363834B14
:10C57000E363834B2364834B636484F8305010235C
:10C58000032219463046FDF707FE7F4BE3647F4BDD
:10C5900023657F4B63657F4BA3657F4BE36584F821
:10C5A00048504FF48043032210213046FDF7F4FD3C
:10C5B0007A4B63667A4BA3667A4BE3667A4B2367C2
:10C5C0007A4B636784F86050794BE367794BC4F822
:10C5D0008030794BC4F88430784BC4F88830784B7D
:10C5E000C4F88C30002384F87830764AC4F894205C
:10C5F000754AC4F89820754AC4F89C20744AC4F857
:10C60000A020744AC4F8A42084F89030724AC4F878
:10C61000AC20724AC4F8B020714AC4F8B420714A00
:10C62000C4F8B820704AC4F8BC2084F8A8306F4A17
:10C63000C4F8C4206E4AC4F8C8206E4AC4F8CC209E
:10C640006D4AC4F8D0206D4AC4F8D42084F8C030B4
:10C650006B4AC4F8DC206B4AC4F8E0206A4AC4F88C
:10C66000E4206A4AC4F8E820694AC4F8EC2084F857
:10C67000D830684AC4F8F420674AC4F8F820674AFA
:10C68000C4F8FC20664AC4F80021664AC4F80421B4
:10C6900084F8F030644AC4F80C21644AC4F81021CC
:10C6A000634AC4F81421634AC4F81821624AC4F8E2
:10C6B0001C2184F80831614AC4F82421604AC4F876
:10C6C0002821604AC4F82C215F4AC4F830215F4A0F
:10C6D000C4F8342184F820315D4AC4F83C215D4A15
:10C6E000C4F840215C4AC4F844215C4AC4F848219B
:10C6F0005B4AC4F84C2184F838315A4AC4F85421B2
:10C70000594AC4F85821594AC4F85C21584AC4F817
:10C710006021584AC4F8642184F85031564AC4F85C
:10C720006C21564AC4F87021554AC4F87421554A00
:10C73000C4F87821544AC4F87C2184F8683170BD6B
:10C74000000801404033002009BF000801C1000873
:10C750009DC80008F9C20008F1BB0008000C0140A8
:10C7600025BF00081DC10008B9C8000819C300088A
:10C7700021BC000841BF000839C10008D5C8000825
:10C7800039C3000851BC000861BF000859C1000846
:10C79000F5C800085DC3000885BC000881BF00081B
:10C7A00079C1000815C900087DC30008B5BC0008A0
:10C7B000A1BF000899C1000835C90008A1C300083D
:10C7C000E9BC0008C1BF0008B9C1000855C900088C
:10C7D000C5C300081DBD0008E1BF0008D9C100089D
:10C7E00075C90008E5C300084DBD000801C0000878
:10C7F000F9C1000895C9000805C4000881BD0008FA
:10C8000021C0000819C20008B5C9000825C40008E5
:10C81000B1BD000841C0000839C20008D5C90008F0
:10C8200049C40008E5BD000861C0000859C20008FD
:10C83000F5C9000869C4000815BE000881C00008D9
:10C8400079C2000815CA000889C4000845BE00085E
:10C85000A1C0000899C2000835CA0008ADC400088C
:10C8600079BE0008C1C00008B9C2000855CA000856
:10C87000CDC40008A9BE0008E1C00008D9C2000864
:10C8800075CA0008EDC40008D9BE0008C3680B4291
:10C8900001D04161704701617047000008B5044B49
:10C8A0001B7803B908BD20210248FFF7EFFFF9E725
:10C8B000403300200008014008B5044B1B7E03B93B
:10C8C00008BD02210248FFF7E1FFF9E740330020ED
:10C8D000000C014008B5054B93F8303003B908BD92
:10C8E0004FF480510248FFF7D1FFF8E740330020B2
:10C8F000000C014008B5054B93F8483003B908BD5A
:10C9000010210348FFF7C2FFF9E700BF40330020C2
:10C91000000C014008B5054B93F8603003B908BD21
:10C920004FF480410248FFF7B1FFF8E740330020A1
:10C93000000C014008B5054B93F8783003B908BDE9
:10C940004FF400610248FFF7A1FFF8E740330020F1
:10C950000010014008B5054B93F8903003B908BDAD
:10C9600020210348FFF792FFF9E700BF4033002082
:10C970000010014008B5054B93F8A83003B908BD75
:10C980004FF400610248FFF781FFF8E740330020D1
:10C990000008014008B5054B93F8C03003B908BD45
:10C9A00001210348FFF772FFF9E700BF4033002081
:10C9B000001C014008B5054B93F8D83003B908BDF9
:10C9C0004FF400410248FFF761FFF8E740330020D1
:10C9D0000008014008B5054B93F8F03003B908BDD5
:10C9E00008210348FFF752FFF9E700BF403300205A
:10C9F000000C014008B5054B93F8083103B908BD98
:10CA000040210348FFF742FFF9E700BF4033002011
:10CA1000000C014008B5054B93F8203103B908BD5F
:10CA20004FF480610248FFF731FFF8E74033002000
:10CA30000008014008B5054B93F8383103B908BD2B
:10CA400002210348FFF722FFF9E700BF403300202F
:10CA5000001C014008B5054B93F8503103B908BDDF
:10CA600002210348FFF712FFF9E700BF403300201F
:10CA7000001C014008B5054B93F8683103B908BDA7
:10CA800001210348FFF702FFF9E700BF4033002010
:10CA9000001C014010B5044601EB41018646064BDF
:10CAA00003EBC10CBCE80F00AEE80F009CE80300EC
:10CAB0008EE80300204610BD4033002010B51D4C09
:10CAC0004FF48073032218212046FDF765FB4FF4D5
:10CAD0000073032218212046FDF75EFB4FF48063AC
:10CAE000032218212046FDF757FB4FF40063032271
:10CAF00018212046FDF750FB04F500644023032273
:10CB000018212046FDF748FB8023032218212046E8
:10CB1000FDF742FB4FF48073032218212046FDF7F6
:10CB20003BFB4FF40073032218212046FDF734FB32
:10CB300010BD00BF0008014008B50D4B984208D059
:10CB400003F5006398420ED0A3F59833984205D0C0
:10CB500008BD40F20B60FDF745FDF9E740F20170BA
:10CB6000FDF740FDF4E740F20D60FDF73BFDEFE718
:10CB7000002C014070B588B0774D2846FFF7DCFFE8
:10CB80002846FDF765FE0024ADF81040ADF81240D0
:10CB9000ADF814404FF47A630693ADF816408DF863
:10CBA0001C4004A92846FDF7CBFE0126ADF8046021
:10CBB000ADF80840ADF80E4001AA21462846FDF721
:10CBC0003BFF01AA31462846FDF736FF01AA0221A4
:10CBD0002846FDF731FF01AA03212846FDF72CFF67
:10CBE000224621462846FEF743F82246314628468B
:10CBF000FEF73EF8224602212846FEF739F8224683
:10CC000003212846FEF734F8602221462846FEF725
:10CC100007F8602231462846FEF702F8602202211A
:10CC20002846FDF7FDFF602203212846FDF7F8FFA7
:10CC3000082221462846FEF729F8082231462846D0
:10CC4000FEF724F8082202212846FEF71FF80822E2
:10CC500003212846FEF71AF831462846FDF7E0FE84
:10CC60002846FDF7B5FE05F500652846FFF764FF89
:10CC70002846FDF7EDFD6323ADF81030ADF8124006
:10CC8000ADF8144045F6C0530693ADF816408DF844
:10CC90001C4004A92846FDF753FEADF80460ADF82A
:10CCA0000840ADF80E4001AA21462846FDF7C4FE13
:10CCB00001AA31462846FDF7BFFE01AA02212846F7
:10CCC000FDF7BAFE01AA03212846FDF7B5FE22466C
:10CCD00021462846FDF7CCFF224631462846FDF77F
:10CCE000C7FF224602212846FDF7C2FF2246032144
:10CCF0002846FDF7BDFF602221462846FDF790FF3C
:10CD0000602231462846FDF78BFF6022022128462B
:10CD1000FDF786FF602203212846FDF781FF0822E8
:10CD200021462846FDF7B2FF082231462846FDF786
:10CD3000ADFF082202212846FDF7A8FF08220321A3
:10CD40002846FDF7A3FF31462846FDF769FE284631
:10CD5000FDF73EFE08B070BD002C014008B5FFF79E
:10CD6000ADFEFFF707FF08BD08B504281FD89FEDEB
:10CD7000387AC0EE077ADFED376A67EEA67AFCEE06
:10CD8000E77A17EE903A9AB2B4EEC70AF1EE10FACB
:10CD900056DCB5EEC00AF1EE10FA53D4013807287C
:10CDA00054D8DFE800F01D23292F353B41479FED84
:10CDB000287AC0EE077ADFED286A67EEA67AFCEEE5
:10CDC000E77A17EE903A9AB2B4EEC70AF1EE10FA8B
:10CDD0003ADCB5EEC00AF1EE10FADFD5002030E003
:10CDE00000211E48FDF744FF01202AE001211B48D5
:10CDF000FDF73EFF012024E002211848FDF738FF2F
:10CE000001201EE003211548FDF732FF012018E044
:10CE100000211348FDF72CFF012012E001211048EA
:10CE2000FDF726FF01200CE002210D48FDF720FF51
:10CE3000012006E003210A48FDF71AFF012000E067
:10CE4000002008BD0020FCE70020FAE70120F8E7F9
:10CE50000000C84200007A450080BB46002C01401B
:10CE60000034014030B585B040F20470FDF7BAFBE4
:10CE70000923ADF800300024ADF802401023ADF8CE
:10CE8000043040F2E7330293ADF806408DF80C40D1
:10CE90000C4D69462846FDF753FD01212846FDF754
:10CEA000BCFD224605213620FDF744FB0121284622
:10CEB000FDF7A3FD044B1C602846FDF78EFD05B071
:10CEC00030BD00BF00100040C034002008B5012173
:10CED0000748FDF796FD012800D008BD054B1B68EB
:10CEE000002BFAD0984701210148FDF796FDF4E7A1
:10CEF00000100040C0340020014B1860704700BF94
:10CF0000C034002030B585B040F20570FDF76AFBF3
:10CF10000923ADF800300024ADF802401023ADF82D
:10CF2000043044F61F630293ADF806408DF80C40C0
:10CF30000C4D69462846FDF703FD01212846FDF703
:10CF40006CFD224606213720FDF7F4FA0121284620
:10CF5000FDF753FD044B1C602846FDF73EFD05B070
:10CF600030BD00BF00140040C434002008B50121CA
:10CF70000748FDF746FD012800D008BD054B1B689A
:10CF8000002BFAD0984701210148FDF746FDF4E750
:10CF900000140040C4340020014B1860704700BFEB
:10CFA000C434002010B509490948FEF764F838B1C7
:10CFB000084B1C6824B10648FEF733F8C0B2A047FE
:10CFC00002490348FEF772F810BD00BF05030500D3
:10CFD00000380140C834002010B509490948FEF75F
:10CFE0004AF838B1084B1C6824B10648FEF719F816
:10CFF000C0B2A04702490348FEF758F810BD00BF71
:10D000000503050000440040CC34002038B5054637
:10D0100040F20360FDF7E6FA40F21270FDF7E2FA23
:10D02000244C4FF48063032218212046FDF7B4F806
:10D030004FF40063032204212046FDF7ADF840F2CF
:10D040001270FDF7CFFA002206212720FDF772FAB1
:10D05000A4F544442046FDF739FF29462046FDF754
:10D060007BFF00212046FDF7AFFF00212046FDF7A2
:10D07000B3FF00212046FDF7B7FF00212046FDF752
:10D08000D4FF00212046FDF7D6FF04212046FDF7FE
:10D09000BEFF08212046FDF7B4FF40F205312046CF
:10D0A000FDF7DCFF2046FDF7A7FF034B00221A60C7
:10D0B00038BD00BF000C0140D034002010B504463C
:10D0C00007210548FDF7BDFF0028F9D02146024899
:10D0D000FDF7A3FF10BD00BF0048004010B509498F
:10D0E0000948FDF7C8FF38B1084B1C6824B1064851
:10D0F000FDF797FFC0B2A04702490348FDF7D6FFEE
:10D1000010BD00BF0503050000480040D0340020DA
:10D11000014B1860704700BFD034002010B509499A
:10D120000948FDF7A8FF38B1084B1C6824B1064830
:10D13000FDF777FFC0B2A04702490348FDF7B6FFED
:10D1400010BD00BF05030500004C0040D434002092
:10D1500038B5054640F20560FDF744FA40F2046038
:10D16000FDF740FA40F21470FDF73CFA4FF480539B
:10D17000032218212048FDF70FF804230322194643
:10D180001E48FDF709F840F21470FDF72BFA002253
:10D1900006213520FDF7CEF9194C2046FDF796FE05
:10D1A00029462046FDF7D8FE00212046FDF70CFF5A
:10D1B00000212046FDF710FF00212046FDF714FF57
:10D1C00000212046FDF731FF00212046FDF733FF07
:10D1D00004212046FDF71BFF08212046FDF711FF23
:10D1E00040F205312046FDF739FF2046FDF704FFE8
:10D1F000044B00221A6038BD0010014000140140A9
:10D2000000500040D834002010B509490948FDF706
:10D2100032FF38B1084B1C6824B10648FDF701FF06
:10D22000C0B2A04702490348FDF740FF10BD00BF50
:10D230000503050000500040D8340020014B186061
:10D24000704700BFD834002010B5044602210548BD
:10D25000FDF7F7FA0028F9D021460248FDF7EFFA6A
:10D2600010BD00BF0038004010B588B040F20E700D
:10D27000FDF7B8F940F20360FDF7B4F94FF400434D
:10D28000032218211248FCF787FF124C2046FDF7B5
:10D2900087FA01A8FDF7AEFA4FF4404302934FF42A
:10D2A000827301934FF400630393022306934FF4B8
:10D2B00000730493082307930023059301A92046D4
:10D2C000FDF7A1FA2046FDF7B5FA08B010BD00BF82
:10D2D000000C01400038004008B5FFF7C5FF08BD4D
